:100000009EC10000CDC10000CBC10000C9C10000ED
:10001000C7C10000C5C10000C3C10000C1C10000CC
:10002000BFC10000BDC10000BBC10000B9C10000DC
:10003000B7C10000B5C10000B3C10000B1C10000EC
:10004000AFC100000C94DB45ABC10000A9C10000AA
:100050000C940946A5C10000A3C100000C940745FB
:100060009FC100000C94D1440C94A74499C1000096
:1000700097C1000095C1000093C1000091C100002C
:100080000C94AD458DC100008BC1000089C10000FA
:1000900087C1000085C1000083C1000081C100004C
:1000A0007FC100007DC100000C947F4579C1000034
:1000B00077C1000075C1000073C100000C94514568
:1000C0006FC100006DC100006BC1000069C100007C
:1000D00067C1000065C1000063C1000061C100008C
:1000E0005FC100004E414E494E495459494E46CDDC
:1000F000CCCC3D0AD7233C17B7D13877CC2B3295DF
:1001000095E6241FB14F0A000020410000C84200BC
:10011000401C4620BCBE4CCA1B0E5AAEC59D740086
:10012000407A10F35A00A0724E18090010A5D4E8C6
:100130000000E87648170000E40B54020000CA9A59
:100140003B000000E1F505000080969800000040AB
:10015000420F000000A086010000001027000000F0
:1001600000E803000000006400000000000A000036
:100170000000000100000000002C76D888DC674FEA
:100180000823DFC1DFAE59E1B1B796E5E3E453C61A
:100190003AE651997696E8E6C28426EB898C9B6212
:1001A000ED407C6FFCEFBC9C9F40F2BAA56FA5F4BC
:1001B00090055A2AF75C936B6CF9676DC11BFCE0E4
:1001C000E40D47FEF520E6B500D0ED902E03009437
:1001D0003577050080841E080000204E0A000000CC
:1001E000C80C333333330F986E12831141EF8D21D6
:1001F00014893BE65516CFFEE6DB18D1844B381B3D
:10020000F77C1D901DA4BBE424203284725E228101
:1002100000C9F124ECA1E53D2700002200250028BB
:10022000002B002E003100340002010000050108FF
:10023000010B01000020002300260029002C002FC4
:100240000032000001000003010601090100000A5C
:100250000B02090C0D0E080703040100000000004A
:10026000000000000000000000000000000000008E
:10027000000000000000000000121110000000004B
:10028000000000000000000000000000000000006E
:1002900000000000002100240027002A002D00306B
:1002A00000330001010000040107010A01010210EE
:1002B0002020080810204010204080020102010880
:1002C0000402010102040810204080804020100830
:1002D0000402018004020180402010080402010889
:1002E00004020101020408102040800102040810E9
:1002F00020408005050505070508080808020202D8
:10030000020A0A08080404040401010101010101B0
:10031000010303030303030303040707070C0C0C87
:100320000C0C0C0C0C02020202060606060606065F
:10033000060B0B0B0B0B0B0B0B005346B953112485
:100340001FBECFEFD1E2DEBFCDBF00E00CBF18E093
:10035000A0E0B2E0E0E7FDEB00E00BBF02C00790D9
:100360000D92AE33B107D9F724E1AEE3B8E001C096
:100370001D92AB32B207E1F711E0CEE9D1E000E027
:1003800006C021970109802FFE010E94925DCD39A0
:10039000D10780E00807A9F70E9444480C94A75EA3
:1003A0002FCE9C01803E910508F021C5FC018827D5
:1003B000E352FE4F8F4F0C94925DBD02CA02D302EE
:1003C000DC02E902F202F706F706F706F706F7067F
:1003D000FF020C031903F70626032F033803450316
:1003E0004E035703600369037203F7067B0384031C
:1003F0008D03F706F706F70696039F03A803F70693
:10040000F706B103BE03F706F706F706CB03D803DA
:10041000E503F706F203FB030404F706F706F70605
:100420000D0416041F04F7062C0439044604F706CD
:10043000F706F706530460046D04F7067A04870490
:100440009404F706F706F706A104AE04BB04F7060A
:10045000C804D104DA04F706F706F706FE040B0514
:100460001805F706250532053F05F706F706F706D6
:100470004C0555055E05F706F706F706F706F7067D
:10048000F706F706670570057905F70682058B05FF
:100490009405F706F706F7069D05AA05B705F706C2
:1004A000C405D105DE05F706F706F706EB05F805E6
:1004B0000506F70612061B062406F706F706F706DA
:1004C0002D0636063F06F706F706F706F706F70687
:1004D000F706F706F706F706F706F706E304EC0457
:1004E000F504F706F706F706F706F706F706F70628
:1004F000F706F706F706F706F706F706F706F70614
:10050000F706F706F706F706F706F706F706F70603
:10051000F706F706F706F706F706F706F706F706F3
:10052000F706F706F706F706F706F706F706F706E3
:10053000F706F706F706F706F706F706F706F706D3
:10054000F706F706F706F706F706F7064806510618
:100550005E06F7066B0674068106F706F706F706D1
:100560008E069706A406F706B106BA06C706F70672
:10057000F706F706D406DD06EA0681E090E0A0E083
:10058000B0E08093630990936409A0936509B093E8
:100590006609089510926709109268091092690916
:1005A00010926A09089510926B0910926C091092CA
:1005B0006D0910926E09089581E090E0A0E0B0E02E
:1005C00080936F0990937009A0937109B093720999
:1005D000089510927309109274091092750910927F
:1005E0007609089583E090E0A0E0B0E08093770979
:1005F00090937809A0937909B0937A09089588E7D0
:1006000090E0A0E0B0E080938F0990939009A093D0
:100610009109B0939209089588E790E0A0E0B0E0D6
:100620008093930990939409A0939509B0939609A8
:10063000089588E790E0A0E0B0E080939709909358
:100640009809A0939909B0939A09089510929F0967
:100650001092A0091092A1091092A2090895109277
:10066000A3091092A4091092A5091092A609089551
:1006700081E090E0A0E0B0E08093A7099093A80902
:10068000A093A909B093AA0908951092AB091092FA
:10069000AC091092AD091092AE0908951092AF09FD
:1006A0001092B0091092B1091092B20908951092F7
:1006B000B3091092B4091092B5091092B6090895C1
:1006C0001092B7091092B8091092B9091092BA099C
:1006D00008951092BB091092BC091092BD091092A6
:1006E000BE0908951092BF091092C0091092C10965
:1006F0001092C20908951092C7091092C809109269
:10070000C9091092CA0908951092CB091092CC0918
:100710001092CD091092CE0908951092CF0910922F
:10072000D0091092D1091092D20908951092DF09D0
:100730001092E0091092E1091092E20908951092D6
:10074000E3091092E4091092E5091092E609089570
:100750001092E7091092E8091092E9091092EA094B
:10076000089581E090E0A0E0B0E08093F3099093D9
:10077000F409A093F509B093F609089581E090E09B
:10078000A0E0B0E08093F7099093F809A093F909ED
:10079000B093FA0908958CE291E0A0E0B0E0809374
:1007A000070A9093080AA093090AB0930A0A0895C9
:1007B0008CE291E0A0E0B0E080930B0A90930C0AE9
:1007C000A0930D0AB0930E0A08958CE291E0A0E088
:1007D000B0E080930F0A9093100AA093110AB0938F
:1007E000120A08951092170A1092180A1092190A04
:1007F00010921A0A089510921B0A10921C0A109265
:100800001D0A10921E0A089510921F0A1092200AC3
:100810001092210A1092220A089510922F0A109223
:10082000300A1092310A1092320A08951092330A57
:100830001092340A1092350A1092360A089581E017
:1008400090E0A0E0B0E08093370A9093380AA0933C
:10085000390AB0933A0A089585E090E0A0E0B0E04C
:1008600080933F0A9093400AA093410AB093420AB2
:10087000089585E090E0A0E0B0E08093430A909373
:10088000440AA093450AB093460A089589E190E08E
:10089000A0E0B0E08093470A9093480AA093490AE9
:1008A000B0934A0A089582E390E0A0E0B0E080931C
:1008B000570A9093580AA093590AB0935A0A089578
:1008C00082E390E0A0E0B0E080935B0A90935C0A42
:1008D000A0935D0AB0935E0A089582E390E0A0E0E1
:1008E000B0E080935F0A9093600AA093610AB0938E
:1008F000620A089582E390E0A0E0B0E08093670A86
:100900009093680AA093690AB0936A0A089582E3F3
:1009100090E0A0E0B0E080936B0A90936C0AA09303
:100920006D0AB0936E0A089582E390E0A0E0B0E013
:1009300080936F0A9093700AA093710AB093720A21
:10094000089580E991E0A0E0B0E080937F0A909361
:10095000800AA093810AB093820A089580E991E009
:10096000A0E0B0E08093830A9093840AA093850A64
:10097000B093860A089580E991E0A0E0B0E080930A
:10098000870A9093880AA093890AB0938A0A0895E7
:1009900010928F0A1092900A1092910A1092920A65
:1009A00008951092930A1092940A1092950A109248
:1009B000960A08951092970A1092980A1092990A2E
:1009C00010929A0A08951092A70B1092A80B1092F9
:1009D000A90B1092AA0B08951092AB0B1092AC0BBE
:1009E0001092AD0B1092AE0B08951092AF0B1092B7
:1009F000B00B1092B10B1092B20B089588E592E003
:100A0000A0E0B0E08093A70A9093A80AA093A90A57
:100A1000B093AA0A089588E592E0A0E0B0E0809340
:100A2000AB0A9093AC0AA093AD0AB093AE0A0895B6
:100A300088E592E0A0E0B0E08093AF0A9093B00A1E
:100A4000A093B10AB093B20A08958EE190E0A0E0BD
:100A5000B0E08093B70A9093B80AA093B90AB09314
:100A6000BA0A08958EE190E0A0E0B0E08093BB0A5E
:100A70009093BC0AA093BD0AB093BE0A08958EE17C
:100A800090E0A0E0B0E08093BF0A9093C00AA093EA
:100A9000C10AB093C20A08951092CF0A1092D00AE8
:100AA0001092D10A1092D20A08951092D30A10928D
:100AB000D40A1092D50A1092D60A08951092D70A35
:100AC0001092D80A1092D90A1092DA0A0895109258
:100AD000F70A1092F80A1092F90A1092FA0A089589
:100AE0001092FB0A1092FC0A1092FD0A1092FE0A64
:100AF00008951092FF0A1092000B1092010B1092B1
:100B0000020B08951092070B1092080B1092090B1C
:100B100010920A0B089510920B0B10920C0B10926E
:100B20000D0B10920E0B089510920F0B1092100BDC
:100B30001092110B1092120B089585E090E0A0E046
:100B4000B0E080931F0B9093200BA093210BB093E8
:100B5000220B089585E090E0A0E0B0E08093230BA5
:100B60009093240BA093250BB093260B089585E05A
:100B700090E0A0E0B0E08093270B9093280BA09327
:100B8000290BB0932A0B089584EB95E1A0E0B0E027
:100B900080932F0B9093300BA093310BB093320BBB
:100BA000089584EB95E1A0E0B0E08093330B90933F
:100BB000340BA093350BB093360B089584EB95E17D
:100BC000A0E0B0E08093370B9093380BA093390BE3
:100BD000B0933A0B089585E090E0A0E0B0E08093F8
:100BE000470B9093480BA093490BB0934A0B089581
:100BF00085E090E0A0E0B0E080934B0B90934C0B2D
:100C0000A0934D0BB0934E0B089585E090E0A0E0CB
:100C1000B0E080934F0B9093500BA093510BB09387
:100C2000520B08951092570B1092580B1092590BBB
:100C300010925A0B089510925B0B10925C0B10925D
:100C40005D0B10925E0B089510925F0B1092600B7B
:100C50001092610B1092620B089510926F0B10921C
:100C6000700B1092710B1092720B08951092730B0F
:100C70001092740B1092750B1092760B08951092CF
:100C8000770B1092780B1092790B10927A0B0895D3
:100C90001092870C1092880C1092890C10928A0C7A
:100CA00008958CE390E0A0E0B0E080938B0C9093EB
:100CB0008C0CA0938D0CB0938E0C089581E090E085
:100CC000A0E0B0E080938F0C9093900CA093910CD7
:100CD000B093920C08951092970C1092980C109269
:100CE000990C10929A0C08958CE390E0A0E0B0E08B
:100CF00080939B0C90939C0CA0939D0CB0939E0CA6
:100D0000089581E090E0A0E0B0E080939F0C909384
:100D1000A00CA093A10CB093A20C08951092AF0C5C
:100D20001092B00C1092B10C1092B20C08958CE39A
:100D300090E0A0E0B0E08093B30C9093B40CA0934B
:100D4000B50CB093B60C089581E090E0A0E0B0E05F
:100D50008093B70C9093B80CA093B90CB093BA0CD5
:100D600008951092BF0C1092C00C1092C10C1092FA
:100D7000C20C08958CE390E0A0E0B0E08093C30C37
:100D80009093C40CA093C50CB093C60C089581E059
:100D900090E0A0E0B0E08093C70C9093C80CA093C3
:100DA000C90CB093CA0C08951092D70C1092D80CAD
:100DB0001092D90C1092DA0C08958CE390E0A0E028
:100DC000B0E08093DB0C9093DC0CA093DD0CB0932F
:100DD000DE0C089581E090E0A0E0B0E08093DF0CAD
:100DE0009093E00CA093E10CB093E20C0895220FD5
:100DF000331F220F331FF901ED59F64F1082118274
:100E0000128213820895883591050CF04BC0853508
:100E10009105CCF4803391054CF58D3291059CF40D
:100E20008C319105BCF4893191056CF48E309105BB
:100E300064F48B3091053CF4009729F097FD08C0CD
:100E40000297049728F481E008950F970997D8F343
:100E500080E00895863291053CF4843291059CF738
:100E60004F970397A8F7EFCF8997FBCF843491056D
:100E70006CF4813491053CF78A3391052CF4873367
:100E800091050CF7C397EDCFCD97EBCF8E3491053D
:100E900034F48B349105BCF687549109E2CF815527
:100EA0009109DFCF863891051CF5833891055CF6F2
:100EB0008237910584F48F3691052CF6883691059A
:100EC0003CF4853691050CF0BECF8B559109C9CF06
:100ED00089569109C6CF8C3791053CF48937910525
:100EE0000CF0B1CF83579109BCCF8D579109B9CF81
:100EF000803D91058CF48D3C91050CF0A4CF843994
:100F000091053CF4813991050CF09DCF8D589109E4
:100F1000A8CF895C9109A5CF8A3D91053CF4873D16
:100F200091050CF090CF835D91099BCF8D5D910968
:100F300098CFAF92BF92CF92DF92EF92FF920F9332
:100F40001F93CF93DF936C017B018B01040F151F5F
:100F5000EB015E01AE18BF08C017D10759F06991C7
:100F6000D601ED91FC910190F081E02DC60119951B
:100F7000892B79F7C501DF91CF911F910F91FF90D8
:100F8000EF90DF90CF90BF90AF900895FC01538D0C
:100F9000448D252F30E0842F90E0821B930B541753
:100FA00010F0CF96089501970895FC01918D828DE0
:100FB000981761F0A28DAE0FBF2FB11D5D968C9179
:100FC000928D9F5F9F73928F90E008958FEF9FEFB8
:100FD0000895FC01918D828D981731F0828DE80F74
:100FE000F11D858D90E008958FEF9FEF0895FC012E
:100FF000918D228D892F90E0805C9F4F821B9109FB
:101000008F739927089587EE9CE0F1DF21E0892B0B
:1010100009F420E0822F0895FC01A48DA80FB92FB8
:10102000B11DA35ABF4F2C91848D90E001968F7310
:101030009927848FA689B7892C93A089B1898C912F
:10104000837080648C93938D848D981306C002887E
:10105000F389E02D80818F7D80830895EF92FF9248
:101060000F931F93CF93DF93EC0181E0888F9B8DCB
:101070008C8D98131AC0E889F989808185FF15C085
:101080009FB7F894EE89FF896083E889F9898081A8
:101090008370806480839FBF81E090E0DF91CF9177
:1010A0001F910F91FF90EF900895F62E0B8D10E099
:1010B0000F5F1F4F0F731127E02E8C8D8E110BC009
:1010C0000FB607FCFACFE889F989808185FFF5CF53
:1010D000CE01A2DFF2CFEB8DEC0FFD2FF11DE35A15
:1010E000FF4FF0829FB7F8940B8FEA89FB898081CC
:1010F0008062D0CF682F87EE9CE0B0CFCF93DF9394
:10110000EC01888D8823B1F0AA89BB89E889F98927
:101110008C9185FD03C0808186FD0CC00FB607FC55
:10112000F7CF8C9185FFF2CF808185FFEDCFCE0187
:1011300073DFEACFDF91CF91089580E090E0892BB3
:1011400021F061DF81110E94000080E090E0892B96
:1011500049F080E090E0892B29F00E940000811185
:101160000E94000080E090E0892B49F080E090E050
:10117000892B29F00E94000081110E94000080E06C
:1011800090E0892B49F080E090E0892B29F00E94C3
:10119000000081110C94000008958150823108F004
:1011A0005AC0E82FF0E08827E752F74F8F4F0C9492
:1011B000925DF908FD08EB08F108F5082B09000914
:1011C00006090A091009140918091E0922092B0920
:1011D00026092C093009809180008F778093800048
:1011E0000895809180008F7DF9CF80918000877F66
:1011F000F5CF84B58F7784BD089584B58F7DFBCFFF
:101200008091B0008F778093B00008958091B000F6
:101210008F7DF9CF809190008F7780939000089513
:10122000809190008F7DF9CF80919000877FF5CFDE
:101230008091A0008F778093A00008958091A000F6
:101240008F7DF9CF8091A000877FF5CF809120011D
:101250008F77809320010895809120018F7DF9CFB1
:1012600080912001877FF5CFCF93DF93282F30E047
:10127000F901E35BFD4F8491F901E355FD4FD491F2
:10128000F901ED50FD4FC491CC2399F0811185DF18
:10129000EC2FF0E0EE0FFF1FED5CFD4FA591B49138
:1012A000EC91ED2381E090E009F480E0DF91CF91B3
:1012B000089580E090E0FACF1F93CF93DF93282F1B
:1012C00030E0F901E35BFD4F8491F901E355FD4FF7
:1012D000D491F901ED50FD4FC491CC23A1F0162F0C
:1012E00081115BDFEC2FF0E0EE0FFF1FE75EFD4F9B
:1012F000A591B4918FB7F894EC91111108C0D095D5
:10130000DE23DC938FBFDF91CF911F910895DE2BF9
:10131000F8CFCF93DF9390E0FC01E355FD4F24918C
:101320008D509D4FFC0184918823C9F090E0880F77
:10133000991FFC01ED56FD4FA591B491FC01E75EAC
:10134000FD4FC591D49161110DC09FB7F8948C9158
:10135000209582238C938881282328839FBFDF9147
:10136000CF910895623051F49FB7F8943C91822F49
:10137000809583238C93E8812E2BEFCF8FB7F89441
:10138000EC912E2B2C938FBFEACFCF938CB58C6032
:101390008CBD8CB58F7D8CBD8CB58C7F8CBD8DB597
:1013A0008E7F8DBDCFB7F89480916209811123C0E3
:1013B000E8E2F3E08491E2EEF2E09491E82FF0E0CD
:1013C000EE0FFF1FED56FD4FA591B491EC91E9236F
:1013D00019F461E085E370DF61E085E39ADF8CB5A5
:1013E00080618CBD8CB580648CBD61E084E391DF4D
:1013F00061E083E38EDF809162098F5F80936209F1
:10140000CFBFCF9108958230910538F0880F991F92
:10141000880F991F05970197F1F708953FB7F89442
:101420008091540890915508A0915608B0915708A2
:1014300026B5A89B05C02F3F19F00196A11DB11D2F
:101440003FBFBA2FA92F982F8827BC01CD01620F6B
:10145000711D811D911D42E0660F771F881F991F26
:101460004A95D1F708958F929F92AF92BF92CF92F3
:10147000DF92EF92FF926B017C01D0DF4B015C01A8
:10148000C114D104E104F104B1F0C8DF681979098D
:101490008A099B09683E73408105910588F321E024
:1014A000C21AD108E108F10888EE880E83E0981E80
:1014B000A11CB11CE5CFFF90EF90DF90CF90BF90C3
:1014C000AF909F908F9008952FB7F8946091500837
:1014D0007091510880915208909153082FBF089540
:1014E000CF92DF92EF92FF92CF93DF93EC016032C5
:1014F00082E07807CCF5653B710514F064EB70E091
:10150000898128E830E0281B310987FD3395220FB7
:10151000331F220F331F6901330FEE08FF088A8142
:1015200028E532E0281B310987FD3395220F331F50
:10153000220F331F032E000C440B550B2C193D09B1
:101540004E095F09DB0177FF02C0B0E0A0E00E9416
:10155000275C24EB30E040E050E00E94015CC20ECA
:10156000D31EE41EF51EB601E881E03370F5298133
:1015700088E890E0821B910927FD9395880F991FB9
:10158000880F991F681779077CF02A8188E592E017
:10159000821B910927FD9395880F991F880F991F2A
:1015A000681779070CF4CB010297880F991F4FB782
:1015B000F8942E2F30E0F901EE0FFF1FE20FF31F1A
:1015C000EC57F24F928381834FBFDF91CF91FF9011
:1015D000EF90DF90CF9008951F93CF93DF93EC01AE
:1015E000162F8881803308F04DC061E0812F91DE95
:1015F0008881282F30E0F901EE0FFF1FE20FF31F63
:10160000EC57F24F1F736081607C612B60831982FD
:101610001A822CE0622F0E94735D829FB001112418
:1016200030E020E0AB01420F531FFA01EE0FFF1F25
:10163000E40FF51FEC57F24F908196FD16C02F5F17
:101640003F4F2C30310571F7813009F51092800041
:1016500082E0809381001092850010928400B19AFC
:1016600080916F00826080936F00E8818E2F90E000
:10167000FC01EE0FFF1FE80FF91FEC57F24F8081BE
:10168000806480838881DF91CF911F91089582309B
:1016900061F4109290008093910010929500109246
:1016A000940088BB80937100E0CF833069F410927E
:1016B000A00082E08093A1001092A5001092A400E7
:1016C00089BB80937200D1CF8111CFCF10922001BE
:1016D00082E08093210110922501109224018ABB9F
:1016E00080937300C2CFAF92BF92CF92DF92EF92FE
:1016F000FF920F931F93CF93DF936B017A01EC015D
:10170000C55BD74F28813CE0389F8001399F100D81
:101710001124A090140EB12C27FF1FC0FB011182D1
:10172000108288818F5F888388819801280F311DFE
:1017300087FD3A95F6012A153B051CF488818C300B
:10174000BCF180819181049680349C4908F471C079
:10175000F6018081918104966EC088819801280FDE
:10176000311D87FD3A952A153B05DCF68881A801D5
:10177000480F511D87FD5A95FA01EE0FFF1FE40F28
:10178000F51FEC57F24F808186FFCBCF8881F8019F
:10179000E80FF11D87FDFA95CF01EE0FFF1FE80F4F
:1017A000F91FEC57F24F808160E08F7385DDB9CF70
:1017B000808191812881A801420F511D27FD5A95F2
:1017C0009A01FA01EE0FFF1FE20FF31FEC57F24FE1
:1017D00021813281820F931FF70191838083888159
:1017E0009801280F311D87FD3A95F901EE0FFF1F73
:1017F000E20FF31FEC57F24F808186FF21C08881F2
:10180000080F111D87FD1A95F801EE0FFF1FE00F5D
:10181000F11FEC57F24F808161E08F73DF91CF9120
:101820001F910F91FF90EF90DF90CF90BF90AF90FE
:1018300043CD80E49CE9F701918380838FEF888317
:10184000DF91CF911F910F91FF90EF90DF90CF909C
:10185000BF90AF9008958EBD00000DB407FEFDCF80
:101860008EB50895DF92EF92FF920F931F93CF935F
:10187000DF93EC01D62E122F032FF42EE52E60E01D
:1018800088851ADD8D2D8068E6DF89878E2DE3DF60
:101890008F2DE1DF802FDFDF812FDDDF61E08885A5
:1018A0000BDD8985DF91CF911F910F91FF90EF9014
:1018B000DF9008953F924F925F926F927F928F9246
:1018C0009F92AF92BF92CF92DF92EF92FF920F93CF
:1018D0001F93CF93DF9300D000D0CDB7DEB79E83A8
:1018E0008D83362E49015A01270138014EDD60E013
:1018F000ED81FE818085E0DC832DADDFED81FE8111
:10190000818780E0A8DF80E0A6DF80E0A4DF80E0C0
:10191000A2DF61E0ED81FE818085CEDC60E0ED81BB
:10192000FE818085C9DC832D96DFED81FE81818774
:1019300080E091DFF82E80E08EDF082F80E08BDFE3
:10194000182F80E088DF202F30E050E040E03F2972
:1019500069017A01FE2CED2CDC2CCC24C12AFE2C52
:10196000ED2CDC2CCC24C82A61E0ED81FE81808541
:10197000A3DC8C249D24AE24BF24482059206A2057
:101980007B20A30192012C253D254E255F25632D4B
:101990008D819E8167DFED81FE81818526960FB660
:1019A000F894DEBF0FBECDBFDF91CF911F910F9195
:1019B000FF90EF90DF90CF90BF90AF909F908F906F
:1019C0007F906F905F904F903F900895CF93DF93FB
:1019D000EC0160E0888570DC80E03DDF898780E095
:1019E0003ADF80E038DF80E036DF80E034DF61E03E
:1019F000888562DC8985DF91CF910895CF93DF934D
:101A0000EC0161E0888585DC61E0888555DCBDDC22
:101A1000CE01DF91CF91DACF8F929F92AF92BF929A
:101A2000CF92DF92EF92FF920F931F93CF93DF93AA
:101A3000EC018B015A016901E1DF85E090E0A0E053
:101A4000B0E008301105C1F1B4F487E090E0A0E007
:101A5000B0E00230110581F186E090E0A0E0B0E056
:101A60000430110549F101301105A1F488E090E03E
:101A7000A0E0B0E021C083E090E0A0E0B0E0003260
:101A80001105D1F05CF484E090E0A0E0B0E000311A
:101A9000110591F080E090E0DC010EC082E090E062
:101AA000A0E0B0E00034110539F081E090E0A0E062
:101AB000B0E00038110571F7582F4427332722274B
:101AC000E12CF12C00E01FE06CE6CE01F3DEB50165
:101AD00090E080E00E94D35A25ED34E045E352E4E3
:101AE0000E94345B20E030E04AE754E40E94C35C8B
:101AF00028EB3EE145E05EE30E94345B4B015C0174
:101B000026E636E646EA5EE30E94C35C20E030E06B
:101B100040E85FE30E945E5C0E94305D603180F4CB
:101B20002CEE31E548E35EE3C501B4010E94C35CDD
:101B300020E030E040E85FE30E945E5C0E94305DA0
:101B4000862F8F71262F30E050E040E0542F432F36
:101B5000322F222722273F7144275527282B60E167
:101B6000CE0180DE0D2C000CEE08FF08A601332705
:101B70002227E12CF12C01E010E06CE6CE019ADE88
:101B8000E12CF12C8701E39421E030E040E050E0CB
:101B900060E0CE018FDE1FE0E12EF12C00E010E0CE
:101BA00023E030E040E050E06CE6CE0183DEE12C43
:101BB00010E8F12E01E010E020E030E840E050E0D5
:101BC0006CE6CE0177DEE12CF12C8701F39420E066
:101BD00031E040E050E060E0CE016CDEE12C14E04A
:101BE000F12E00E010E020E034E040E050E060E062
:101BF000CE0160DE2FEF3FEF4FE050E064E1CE0119
:101C000031DE20E030E0A90165E1CE012BDE1FE0EE
:101C1000E12EF12C00E010E025E030E040E050E063
:101C20006CE6CE0147DEE12CF12C8701F39420E035
:101C300032E040E050E06CE6CE013CDEE12C10E208
:101C4000F12E00E010E020E030E240E050E06CE6F1
:101C5000CE0130DE64E670E080E090E0DF91CF916D
:101C60001F910F91FF90EF90DF90CF90BF90AF90BA
:101C70009F908F90F8CB0F931F93CF93DF938B019F
:101C8000EA01AB01415051094433510508F0E9C064
:101C90002230310508F0E5C048E3429FF001439F40
:101CA000F00D1124E80FF91FE60FF71F81E0808384
:101CB0006C2F232B09F4D2C061E0802F2ADB209700
:101CC00049F460E0802FF8DACE01DF91CF911F91C7
:101CD0000F910895CF3FD10511F461E0BFC0F80125
:101CE000E35BFD4FE491E150E23108F0B2C0F0E077
:101CF0008827E258F14F8F4F0C94925D900E970E0B
:101D00009C0EA60EB00E290FBA0EC20ECA0ED40E2D
:101D1000DE0EE80EF70E010F290F0B0F150F1F0F28
:101D200084B5806884BDC7BDD0E0C0E0CDCF84B5A8
:101D3000806284BDC8BDF8CF8091800080688093A8
:101D40008000D0938900C0938800EECF80918000FE
:101D5000806280938000D0938B00C0938A00E4CF90
:101D600080918000886080938000D0938D00C09324
:101D70008C00DACF8091B00080688093B000C0936F
:101D8000B300D2CF8091B00080628093B000C09346
:101D9000B400CACF80919000806880939000D09367
:101DA0009900C0939800C0CF80919000806280938A
:101DB0009000D0939B00C0939A00B6CF8091900082
:101DC000886080939000D0939D00C0939C00ACCF1E
:101DD0008091A00080688093A0008091A0008F7BFC
:101DE0008093A000D093A900C093A8009DCF8091BC
:101DF000A00080628093A000D093AB00C093AA00A3
:101E000093CF8091A00088608093A000D093AD0014
:101E1000C093AC0089CF809120018068809320011D
:101E2000D0932901C09328017FCF80912001806247
:101E300080932001D0932B01C0932A0175CF80910C
:101E40002001886080932001D0932D01C0932C0144
:101E50006BCF60E0C038D1050CF03FCF802F2CDA7B
:101E600063CFC1E0D0E030CFCF93DF93D0E0C0E0CC
:101E7000CE010E940307882319F0CE010E94D101F0
:101E80002196C13ED105A1F7DF91CF9108954F92E0
:101E90005F926F927F928F929F92AF92BF92CF92FA
:101EA000DF92EF92FF92CF93DF93EC016C897D89F3
:101EB0008E899F8988889988AA88BB88CE8CDF8C78
:101EC0000D2C000CEE08FF08603127E27207810537
:101ED000910529F01616170618061906ACF0A70189
:101EE0009601C501B4010E94645DDF91CF91FF901E
:101EF000EF90DF90CF90BF90AF909F908F907F90AA
:101F00006F905F904F9008950E94D55A20E030E482
:101F10004CE156E40E94C35C2B013C01488E598E73
:101F20006A8E7B8EC501B4010E94D55AA30192012D
:101F30000E94345B4B015C01C701B6010E94D55A77
:101F40009B01AC01C501B4010E94345B0E942B5D72
:101F5000CCCFFC011182108213821282158214826E
:101F600017821682108611861286138614861586AD
:101F700016861786108A118A128A138A108E118E7D
:101F8000128E138E158E148E178E168E10A211A21D
:101F900012A213A214A215A216A217A210A611A68D
:101FA00012A613A614A615A681E090E097A786A70F
:101FB00080E197E2A0E0B0E0848B958BA68BB78B95
:101FC00008953F924F925F926F927F928F929F926D
:101FD000AF92BF92CF92DF92EF92FF920F931F9337
:101FE000CF93DF93EC014B016A01590188819981FC
:101FF000EDDCE82EF12CC701959587959595879591
:10200000282F2170322EFE01E759FF4F408051806A
:1020100062807380C301B20124E630E040E050E00A
:102020000E942D5C672B682B692B29F4F601108226
:10203000118212821382CC5BDF4F311014C083E017
:10204000F594E7948A95E1F7E0FE38C0C301B20148
:102050000E94D35AF80120813181428153810E942C
:102060005C5D87FD2BC020E030E040E85FE3F601D7
:1020700060817181828193810E945F5CF60160833F
:10208000718382839383F50180819181A281B381E1
:1020900088839983AA83BB83DF91CF911F910F918E
:1020A000FF90EF90DF90CF90BF90AF909F908F9078
:1020B0007F906F905F904F903F90089588819981B5
:1020C000AA81BB81F50180839183A283B383888138
:1020D0009981AA81BB81F401808B918BA28BB38BF8
:1020E000DBCF889A0895889808958E9A08958E98DF
:1020F0000895EBE0F1E08081886080830895EBE053
:10210000F1E08081877F80830895149A0895149860
:10211000089560E0FC018189CFC860E0FC018385FF
:10212000CBC861E0FC018189C7C861E0FC018385FF
:10213000C3C8CF93DF93EC01FC01E958FF4F108235
:10214000379781E0808360E08B85B6D88D899E8942
:10215000892B29F060E08989DF91CF91ADC8DF91AB
:10216000CF910895CF93DF93EC01898D7DD82C8D8D
:102170002817190621F48D8DDF91CF91089580E005
:10218000FBCFCF93DF93EC018F896ED82C8D28176E
:10219000190621F48D8DDF91CF91089580E0FBCF5A
:1021A000CF93DF93EC018D859BA961E0911101C074
:1021B00060E082D88B899CA9992321F09DA961E0D8
:1021C000911101C060E0DF91CF9176C8CF93DF938A
:1021D000EC018D859BA960E0911101C061E06CD894
:1021E0008B899CA9992321F09DA960E0911101C0E0
:1021F00061E0DF91CF9160C8CF93DF93EC0161E0A4
:102200008F855AD88CA9882319F061E08D8954D81C
:10221000CB58DF4F1882DF91CF910895CF93DF9392
:10222000EC01FC01E25DFC4F1082EE58F109808167
:10223000811103C0CE014096DFDFFE01EF55FD4F57
:102240008081811104C0CE0188569F4FD5DFFE01E9
:10225000EE55FD4F8081811104C0CE01805E9E4FFE
:10226000CBDF64E670E080E090E0DF91CF91FBC8C7
:10227000CF93DF93EC0160E08F851ED88CA9882373
:1022800019F060E08D8918D8CB58DF4F81E0888342
:10229000DF91CF910895CF92DF92EF92FF920F934B
:1022A0001F93CF93DF93FC01DC01A05CBF4F4D93E4
:1022B0005D936D937C93139714964D935D936D93FB
:1022C0007C93139714960D931D932D933C93139722
:1022D000EC01C45BDF4FE88282AD882351F092A904
:1022E00091114CC037FF50C01D921D921D921C923F
:1022F000139743AD54AD65AD76AD141615061606AD
:1023000017063CF597AD992321F10D911D912D9163
:102310003C9113976801790137FF07C0CC24DD2475
:102320007601C01AD10AE20AF30A4C155D056E0562
:102330007F057CF437FF07C07095609550954195F7
:102340005F4F6F4F7F4F4D935D936D937C931397CA
:10235000892FDF01A75ABF4F1D921D921D921C921B
:102360001397E359FF4F91E09083DF91CF911F9135
:102370000F91FF90EF90DF90CF9008951016110607
:10238000120613060CF4B0CF80E0B3CF0F931F9367
:10239000CF93DF93EC01062F8B8D81110DC0CE0101
:1023A000F0DE182FCE01DEDE0111182F812FDF9114
:1023B000CF911F910F910895CE01D4DE182FCE0139
:1023C000E0DEF2CFCF93DF93EC01FC01E759FF4F42
:1023D00080819181A281B3810196A11DB11D80836D
:1023E0009183A283B3833E9681E08083AE014C5BF0
:1023F0005F4FFA0180819181A281B3819E012259B0
:102400003F4FF9012081222309F440C00196A11D0C
:10241000B11DFA0180839183A283B383FE01E65844
:10242000FF4F20813181C901959587958C0F9D1FA4
:1024300032970190F081E02D20FF08C0DC012D9142
:102440003C91E20FF31F0190F081E02D19958D89E9
:102450009E89892BF9F0FE01E258FF4F20813181DE
:10246000C901959587958C0F9D1FC458DF4FE88152
:10247000F98120FF08C0DC012D913C91E20FF31F90
:102480000190F081E02DDF91CF9119940197A1097E
:10249000B109BFCFDF91CF9108958F929F92AF92F4
:1024A000BF92CF92DF92EF92FF920F931F93CF9341
:1024B000DF93EC01FC01E75AFF4F6081718182815B
:1024C00093810E94D35A6B017C016EA97FA988ADCC
:1024D00099AD0E94D55A9B01AC0160E074E284E79B
:1024E00099E40E94C35C4B015C01FE01EB59FF4F74
:1024F00060817181828193810E94D35A9B01AC01DA
:10250000C501B4010E94C35C4B015C018E01035AFA
:102510001F4F20E030E040E05FE30E94345BA70102
:1025200096010E945F5C0E94305DF80160837183B8
:1025300082839383CF59DF4FA5019401C701B60170
:102540000E945F5C0E94305D688379838A839B83ED
:10255000DF91CF911F910F91FF90EF90DF90CF907F
:10256000BF90AF909F908F9008950F931F93CF933C
:10257000DF93FC01E958FF4F20812223B9F07E97B9
:10258000008111812281338138964081518162819D
:102590007381041715072607370710F1EC01C9DD11
:1025A000CE01DF91CF911F910F9177CFFC01E359BD
:1025B000FF4F20812223A1F0749700811181228195
:1025C00033813496408151816281738104171507EC
:1025D0002607370728F0DF91CF911F910F91F2CE98
:1025E000DF91CF911F910F910895FC01E359FF4FA7
:1025F0002081222361F0749780819181A281B3812F
:102600000196A11DB11D80839183A283B383089598
:102610000F931F93FC01E45BFF4F2081211112C037
:102620003897008111812281338134964081518114
:102630006281738104171507260737073CF41F9141
:102640000F91C4CDFC0122A92111F9CF1F910F9147
:10265000A7CDCF92DF92EF92FF920F931F93CF936C
:10266000DF93EC017B016A0189019A01AB01B8019A
:1026700088819981D1D98C81883571F49601A7011F
:10268000B8018A819B81DF91CF911F910F91FF90BB
:10269000EF90DF90CF90C0C9DF91CF911F910F9144
:1026A000FF90EF90DF90CF900895CF93DF93EC01F0
:1026B0008C818835A9F583EE92E19983888383E143
:1026C00093E19B838A8385E990E1FE01E858FF4FFF
:1026D0009183808332961182108281E990E1329653
:1026E000918380833296118210828DE890E1329638
:1026F0009183808332961182108289E890E132962C
:10270000918380833296118210828881998176D953
:102710008C81883589F48A819B81DF91CF916EC944
:10272000893529F483EF92E199838883CCCF8A3568
:1027300051F683E093E1F8CFDF91CF910895FC014A
:1027400081E0868387831186108612868CE291E071
:10275000A0E0B0E0868F978FA0A3B1A342E350E042
:1027600060E070E042A353A364A375A346A357A3FC
:1027700060A771A782A793A7A4A7B5A788E790E051
:10278000A0E0B0E086A797A7A0ABB1AB12AA13AAAE
:1027900014AA15AA84E690E0A0E0B0E086AB97AB5F
:1027A000A0AFB1AF12AE13AE14AE15AE16AE17AEEB
:1027B000DF01A05CBF4F1D921D921D921C921397CA
:1027C00014961D921D921D921C92139714961D92A1
:1027D0001D921D921C92139714961C9211961D9295
:1027E0001D921D921C92139714961D921D921D927C
:1027F0001C92139714961D921D921D921C92139772
:1028000014961D921D921D921C92139714961D9260
:102810001D921D921C92139714961D921D921D924B
:102820001C92139714961D921D921D921C92139741
:1028300014961D921D921D921C92139714961C9231
:1028400011961C9211961C9211961C9211961C9234
:1028500011961C9211961C9211961C9211961C9224
:1028600011961C9211961C92148613861686158654
:10287000108A1786128A118A148A138A168A158A70
:10288000108E178A128E118E119685E990E111969D
:102890009C938E93129611961C921E92129681E929
:1028A00090E111969C938E93129611961C921E9213
:1028B00012968DE890E111969C938E931296119644
:1028C0001C921E92129689E890E18D939C93EA5790
:1028D000FF4F11821082089508958FEF9FEF0895A2
:1028E0000895089508950895089508950895089500
:1028F00008950895089508950895089508950895F0
:102900000895089508950895089580914908909133
:102910004A08892B41F481E090E00E94565590933B
:102920004A08809349088091490890914A0808957F
:102930000F931F93CF93DF938B01E7DFF801C2A1C1
:10294000D3A1868D978D8530910529F14CF404979C
:10295000B1F090E080E0DF91CF911F910F91089549
:102960008630910511F10B97A1F76BE070E08EE1D5
:102970009EE00E94EC0ABE018EE19EE009C064E088
:1029800070E085E19EE00E94EC0ABE0185E19EE0D8
:102990000E94700ADECF65E070E088E19EE00E9450
:1029A000EC0ABE0188E19EE0F3CF66E070E08BE1C7
:1029B0009EE00E94EC0ABE018BE19EE0E9CF80918F
:1029C000450890914608892B91F480E790E00E9499
:1029D0005655FC0131969C012B5C3F4F119217AA72
:1029E000E217F307D9F79093460880934508809142
:1029F00045089091460808954F925F926F927F929A
:102A0000AF92BF92CF92DF92EF92FF920F931F93FC
:102A1000CF93DF93EB01D3DF8C01CAA8DBA84EA4D0
:102A20005FA468A879A8AEA0BFA0EE8CFF8C4AA1D5
:102A30005BA19601B7011FD9C301B2010E94330AFD
:102A40009601A501B701C80116D990E080E0DF9199
:102A5000CF911F910F91FF90EF90DF90CF90BF909B
:102A6000AF907F906F905F904F900895CF93DF93DA
:102A7000EB01A5DF6AA98E8D0E94890990E080E0B4
:102A8000DF91CF910895CF93DF93EB0198DF2AA9CF
:102A90003BA94AA15BA16E8D7F8DEDD890E080E0CF
:102AA000DF91CF91089580913E0890913F08892B46
:102AB000E1F585E390E00E945655FC0181E090E04D
:102AC000A0E0B0E080839183A283B3838483958365
:102AD000A683B78380879187A287B38715861486DC
:102AE00016861786108A118A128A138A148A158A02
:102AF000168A178A108E118E138E128E12A213A2AE
:102B000014A215A217A216A210A611A612A613A609
:102B100014A615A616A617A610AA11AA12AA13AAD9
:102B200014AAF0933F08E0933E0880913E089091EC
:102B30003F080895CF93DF93B6DFEC0185E40E9450
:102B4000340921E0892B09F420E02C8FACDFEC0163
:102B500084E40E94340921E0892B09F420E02D8FC0
:102B6000A2DFEC0183E40E94340921E0892B09F4FF
:102B700020E02E8F98DFEC0182E40E94340921E0EE
:102B8000892B09F420E02F8F8EDFEC0181E40E9475
:102B9000340921E0892B09F420E028A384DFEC012B
:102BA00080E40E94340921E0892B09F420E029A364
:102BB000DF91CF91089577DFBDCF75DFFC0114AAB7
:102BC00090E080E00895FC0101900020E9F7319742
:102BD000AF01481B590BBC0187EE9CE00C94990790
:102BE0008F929F92AF92BF920F931F93CF93DF93D9
:102BF000CDB7DEB7A1970FB6F894DEBF0FBECDBF3D
:102C000019A2423008F44AE08E010F5D1F4F842E56
:102C1000912CB12CA12CA50194010E942D5CE62FD2
:102C2000B901CA01EA30ECF4E05DD801EE938D0100
:102C3000232B242B252B79F790E080E0109711F0BF
:102C4000CD01C1DFA1960FB6F894DEBF0FBECDBF98
:102C5000DF91CF911F910F91BF90AF909F908F9078
:102C60000895E95CE2CFCF92DF92EF92FF92CF938B
:102C7000DF9397FF18C06B017C018DE20E947A08F8
:102C8000EC0166277727CB016C197D098E099F0916
:102C90004AE0A6DF8C0F9D1FDF91CF91FF90EF9050
:102CA000DF90CF9008954AE0DF91CF91FF90EF90B1
:102CB000DF90CF9095CFBC01990F880B990BD3CFA4
:102CC00082CF882319F087E997E0FACF80E997E06F
:102CD000FCCF2F923F924F925F926F927F928F9292
:102CE0009F92AF92BF92CF92DF92EF92FF920F939B
:102CF0001F93CF93DF93CDB7DEB762970FB6F894EB
:102D0000DEBF0FBECDBF1C018C010C5B1F4F1E87A9
:102D10000D87D8014D915D916D917C917C01B8E456
:102D2000EB0EF11CF70180819181A281B3816101D9
:102D3000FCE4CF0ED11CF6012081065D1F4F580127
:102D4000B3964F012223A1F1F10122A9F8012083BA
:102D500021E0F4012083411551056105710559F405
:102D6000F10102A113A124A135A1EB59FF4F00836A
:102D70001183228333838101005C1F4FF80140805F
:102D8000518062807380910123593F4F5901481649
:102D900059066A067B06B4F5481759076A077B0788
:102DA000DCF1D6018C91811137C0D5011C923AC15A
:102DB00021E0481759076A077B070CF020E0F5016E
:102DC00020832A013B0177FF07C0442455243201A8
:102DD000441A550A660A770A8C019D01B7FF07C09D
:102DE000002711279801081B190B2A0B3B0BBB244A
:102DF000B39440165106620673060CF4B12CF4012C
:102E0000B082A9CF84159505A605B70554F6841799
:102E10009507A607B7072CF6F5018081882329F2CC
:102E2000D6018C9181110DC0F60180818111BDCF39
:102E3000D4016C9181E06827C101A8DA8111B5CF76
:102E400005C060E0C101A2DA8111EECFD1019A96EE
:102E50002D913D914D915C919D9729833A834B83B0
:102E60005C835E962D913D914D915C9191972D8360
:102E70003E834F83588792962D913D914D915C9161
:102E8000959729873A874B875C87F70180819181E5
:102E9000A281B381ED85FE85C080D180E280F38080
:102EA000F8014081518162817381F101EF58FF4F38
:102EB0001082319610823101F3E76F0E711CF3011D
:102EC000108291012C583F4FF901108232961082E6
:102ED0004C015D01841A950AA60AB70AB7FE08C01C
:102EE000B094A09490948094811C911CA11CB11C5E
:102EF000481759076A077B072CF0C81AD90AEA0A4B
:102F0000FB0A04C0C41AD50AE60AF70AD501C401AF
:102F1000B595A795979587958D879E87AF87B88B31
:102F200081010A581F4F8C149D04AE04BF0408F0A1
:102F30009EC0D10196960D90BC91A02DBA8BA98B05
:102F400081E0F9018083D8018C93F1018285882387
:102F500009F45CC00E94640AD10118960D911C917D
:102F6000012E000C220B330B601B710B820B930B99
:102F7000693E73408105910508F448C00E94640AC7
:102F8000F1017187608786E993E09ADE8AE993E030
:102F900097DE60E070E0CB0166DE80EA93E090DED1
:102FA000C701B60160DE86EA93E08ADEC501B4019E
:102FB0005ADE8CEA93E084DE4AE06D857E858F855B
:102FC00098890EDE83EB93E07BDE69817A818B81C9
:102FD0009C8149DE89EB93E073DE69857A858B8578
:102FE0009C8541DE8FEB93E06BDE6D817E818F816E
:102FF000988539DE85EC93E063DE83E396E060DE5E
:1030000089899A8958DE8BE098E05ADEF101EB5904
:10301000FF4F09891A89C801B0E0A0E0808391833D
:10302000A283B38360E0C101B1D9882339F0F101F3
:10303000EC5BFF4F108211821282138262960FB6F0
:10304000F894DEBF0FBECDBFDF91CF911F910F91DE
:10305000FF90EF90DF90CF90BF90AF909F908F90B8
:103060007F906F905F904F903F902F9008952D85A7
:103070003E854F8558892C153D054E055F0508F4A2
:1030800050C089819A81AB81BC818C159D05AE05AC
:10309000BF0544F4AD81BE811196BA8BA98B81E046
:1030A000F30150CFC701B6010E94D55A2B013C0154
:1030B00069817A818B819C810E94D55A9B01AC01E8
:1030C000C301B2010E94C35C2B013C016D817E8172
:1030D0008F81988529853A854B855C85621B730BAA
:1030E000840B950B0E94D55A9B01AC01C301B20120
:1030F0000E94345B2B013C0169857A858B859C8518
:103100000E94D55A9B01AC01C301B2010E945F5CD1
:103110000E942B5D7A8B698B81E0F101EF58FF4FA4
:1031200011CFD501C40129813A814B815C81821B79
:10313000930BA40BB50BC816D906EA06FB065CF484
:103140004D815E814E5F5F4F5A8B498B81E0F1016B
:10315000ED58FF4FF7CEC501B4016C197D098E09FA
:103160009F090E94D55A2B013C0169817A818B818C
:103170009C810E94D55A9B01AC01C301B2010E94FF
:10318000C35C2B013C016D817E818F8198852985EF
:103190003A854B855C85621B730B840B950B0E94F3
:1031A000D55A9B01AC01C301B2010E94345B2B01D3
:1031B0003C0169857A858B859C850E94D55A9B0147
:1031C000AC01C301B2010E945F5C0E942B5D7A8B4F
:1031D000698B81E0F101EE58FF4FB4CECF93DF93BE
:1031E000EC018BEC93E06CDD6AA17BA18CA19DA12D
:1031F0003ADD8BE098E0DF91CF9162CD0F931F9382
:10320000CF93DF938C01EB0188E793E059DD83E3F3
:1032100096E056DDF80184810E947A08CE014BDDEC
:1032200042DCDF91CF911F910F91D8CFEF92FF92A7
:103230000F931F93CF93DF93182F092F7B016115F5
:10324000710569F50E94340931E020E0019709F029
:1032500030E0C32FD22F82E0E816F10408F045C019
:103260008EEC93E02DDD83E396E02ADD82ED93E0A2
:1032700027DD812F902F1FDD83E396E021DD8CE396
:1032800098E01EDDCE0117DD0EDCA8DF90E080E0C7
:10329000DF91CF911F910F91FF90EF900895D0E0B3
:1032A000C0E061307105B9F6812F163310F08AEC59
:1032B000810F20917B00982F9870277F922B9093FD
:1032C0007B008770806480937C0080917A008064AA
:1032D00080937A0080917A0086FDFCCF80917800FF
:1032E000C0917900DC2FC82FB6CF81E090E0D0CF1D
:1032F0000F931F93CF93DF93FC0120813181211520
:103300003105C1F1EC01822F0E94340921E0892BA3
:1033100009F420E02B876A85261701F11E821F829F
:10332000188619860E811F81288539858A819B819F
:10333000AC81BD81081719072A073B07DCF081E043
:10334000682788810E945C093ADB70E060E0888130
:103350009981DF91CF911F910F9168CF8E819F81CD
:10336000A885B9850196A11DB11D8E839F83A8876D
:10337000B987D8CFDF91CF911F910F910895CF9347
:10338000DF93EB011CDB6AA97BA98E8D9F8D4EDF3D
:1033900090E080E0DF91CF910895CF92DF92EF929D
:1033A000FF92CF93DF93EB01CB010E9403078823A9
:1033B00051F1FE01EE0FFF1FEE0FFF1FED59F64F0B
:1033C000C080D180E280F38084ED93E079DC83E3F8
:1033D00096E076DC82ED93E073DCCE016CDC83E377
:1033E00096E06EDC8CE398E06BDCC701B6013BDC59
:1033F0005ADBF4DE90E080E0DF91CF91FF90EF9018
:10340000DF90CF90089588ED93E05ADCF3CF0F93CF
:103410001F93CF93DF938C01D0E0C0E0CE010E94D8
:103420000307882319F0BE01C801B7DF2196C13E0A
:10343000D105A1F7DF91CF911F910F9108958AEFE8
:1034400093E03EDC88E292E03BDC88E092E038DC0E
:103450008FEF93E035DC27DBC1DE90E080E008955C
:10346000CF93DF93EC0189E094E02ADC8DE094E0D7
:1034700027DC8C8D26DC81E194E022DC8D8D21DC43
:1034800085E194E01DDC8E8D1CDC89E194E018DC84
:103490008F8D17DC8DE194E013DC88A112DC81E2D2
:1034A00094E00EDC89A10DDCCE01DF91CF9196CEA8
:1034B000FADAD6CF85E294E003DCF5DA3BDBF3DA27
:1034C000CFDF7DDA70E060E088E090E0AFDE77DAB1
:1034D00070E060E089E090E0A9DE71DA70E060E021
:1034E0008AE090E0A3DE6BDA70E060E08DE090E0CF
:1034F0009DDE90E080E008954F925F926F927F9200
:103500008F929F92AF92BF92CF92DF92EF92FF92F3
:103510000F931F93CF936B017C01742EAC019B0121
:103520000E94605D882391F08CE294E0CF911F911E
:103530000F91FF90EF90DF90CF90BF90AF909F9052
:103540008F907F906F905F904F903DCB46015701D9
:10355000E894B7F82FEF3FEF4FE75FE7C501B401FD
:103560000E94605D81110DC02FEF3FEF4FE75FE7D5
:10357000C501B4010E94CF5A18161CF480E394E0F0
:10358000D5CF2FEF3FEF4FE75FE4C701B6010E94B1
:103590005C5D18161CF484E394E0C8CF2FEF3FEF76
:1035A0004FE75FECC701B6010E94CF5A87FDF3CF0A
:1035B00020E030E0A901C701B6010E94CF5A10E017
:1035C00000E087FF08C08DE20E947A088C01F7FABC
:1035D000F094F7F8F094C0E060E070E080E09FE3E2
:1035E0007C1641F020E030E040E251E40E94C35CF0
:1035F000CF5FF6CFA70196010E945F5C2B013C01D3
:103600000E94305D4B015C014AE0EADA7C01E00E89
:10361000F11ECC23A9F1C501B4010E94D35A9B012C
:10362000AC01C301B2010E945E5C4B015C018EE201
:103630000E947A08E80EF91EC15010F120E030E037
:1036400040E251E4C501B4010E94345B2B013C010E
:103650000E94305D4B01B12CA12C4AE0C501B401A0
:10366000BFDAE80EF91EC501B4010E94D35A9B01CE
:10367000AC01C301B2010E945E5C4B015C01DCCF76
:10368000C701CF911F910F91FF90EF90DF90CF90E6
:10369000BF90AF909F908F907F906F905F904F9072
:1036A00008958F929F92AF92BF92CF92DF92EF9246
:1036B000FF920F931F93CF93DF93EC0184E392E08B
:1036C000FFDA8DE494E0FCDA6E0188E5C81A8EEF2B
:1036D000D80AC6010E94470F0E94D55A4B015C01CF
:1036E000FE01EF53FD4F60817181828193810E94C1
:1036F000D55A9B01AC01C501B4010E94C35C42E0F4
:10370000FBDE8DE594E0DCDA7E01E8E2EE1AEEEF16
:10371000FE0AC7010E94470F0E94D55A4B015C0167
:10372000FE01EB53FD4F60817181828193810E9484
:10373000D55A9B01AC01C501B4010E94C35C42E0B3
:10374000DBDE8DE694E0BCDA8E01085F1D4FC80118
:103750000E94470F0E94D55A4B015C01C753DD4FB1
:10376000688179818A819B810E94D55A9B01AC0135
:10377000C501B4010E94C35C42E0BEDE94D92EDDD7
:1037800080E392E09DDA8DE494E09ADAF601A68D6A
:10379000B78D20893189428953890E94275C63DA79
:1037A0008DE594E08DDAF701A68DB78D20893189FA
:1037B000428953890E94275C56DA8DE694E080DACC
:1037C000F801A68DB78D20893189428953890E94DD
:1037D000275C49DA68D9DF91CF911F910F91FF9053
:1037E000EF90DF90CF90BF90AF909F908F90F6CCEE
:1037F000CF92DF92EF92FF92CF93DF93EC0188811B
:103800009981AA81BB81181619061A061B0644F075
:1038100081E090E0A0E0B0E088839983AA83BB8335
:103820008C819D81AE81BF81181619061A061B0670
:1038300044F081E090E0A0E0B0E08C839D83AE8313
:10384000BF8388859985AA85BB85181619061A062F
:103850001B0644F081E090E0A0E0B0E08887998703
:10386000AA87BB8788E394E02BDA8DE494E028DA1A
:103870006E857F85888999890E94D55A6B017C0164
:10388000688179818A819B810E94D55A9B01AC0114
:10389000C701B6010E94C35C42E02EDE8DE594E0D4
:1038A0000FDA6A897B898C899D890E94D55A6B01C0
:1038B0007C016C817D818E819F810E94D55A9B0104
:1038C000AC01C701B6010E94C35C42E015DE8DE683
:1038D00094E0F6D96E897F89888D998D0E94D55A9A
:1038E0006B017C01688579858A859B850E94D55A04
:1038F0009B01AC01C701B6010E94C35C42E0FCDD44
:10390000CE01DF91CF91FF90EF90DF90CF9066CC0A
:10391000CAD86EDF90E080E00895FC01808191813B
:10392000009711F00C94F25508950C94F2550C94F4
:10393000F2550C94F2550C94F2550C94F2550C94EB
:10394000F2550C94F2550C94F2550C94F2550C94DB
:10395000F2550C94F2550C94F2550C94F2550C94CB
:10396000F2550C94F2550C94F2550C94F2550C94BB
:10397000F2550C94F2550C94F2550C94F2550C94AB
:10398000F2550C94F255CF92DF92EF92FF920F9383
:103990001F93CF93DF938C016A017B01EC01CC0F65
:1039A000DD1F642FCE010E94F35B9927F7FC9A95E7
:1039B0008F2D7E2D6D2DCE0101960E94F35B0D584B
:1039C00011090330110588F4B701992777FD909507
:1039D000892FCE0144960E94F35B6F2D77278827AD
:1039E0009927CE0145960E94F35B90E080E0DF913D
:1039F000CF911F910F91FF90EF90DF90CF9008959E
:103A00004F925F926F927F928F929F92AF92BF92EE
:103A1000CF92DF92EF92FF920F931F93CF93DF939A
:103A20008C01EC01CC0FDD1FCE010E94EB5B882ED8
:103A3000912CB12CA12CCE0101960E94EB5BC82EDB
:103A4000D12CF12CE12C0D5811090330110508F08F
:103A50005AC0CE0144960E94EB5B482E512C712C2B
:103A6000612CCE0145960E94EB5B082F10E030E000
:103A700020E08FEF481651046104710429F50F3FCF
:103A800011052105310501F58FEF88169104A10478
:103A9000B104C9F58FEFC816D104E104F10499F51A
:103AA0006FEF7FEFCB01DF91CF911F910F91FF90CF
:103AB000EF90DF90CF90BF90AF909F908F907F90CE
:103AC0006F905F904F9008950038110521053105E2
:103AD0003CF7FE2CED2CDC2CCC24C701B601680D84
:103AE000791D8A1D9B1D320155244424640D751DCA
:103AF000861D971D302F222711270027600F711F69
:103B0000821F931FD0CF00E010E09801412C512C70
:103B1000320180E8C816D104E104F104D4F2C0CF28
:103B2000EF92FF920F931F93CF93DF9380914308FF
:103B300090914408892B51F586E090E00E945655FB
:103B40007C0190E080E05CDF1616170654F1C70197
:103B50000E94340FD0E0C0E0CE010E94030788230A
:103B600069F0FE01EE0FFF1FEE0FFF1FED59F64F3C
:103B70004081518162817381CE0105DF2196C63972
:103B8000D10551F7F0924408E09243088091430830
:103B900090914408DF91CF911F910F91FF90EF908A
:103BA000089583E090E02CDF613071058105910577
:103BB00031F503E619E0D0E0C0E0CE010E94030732
:103BC0008823B1F0CE011CDFF8016083718382830A
:103BD00093836F3F7F4F8F4F9F4F51F4CE010E94D1
:103BE000D101F8014081518162817381CE01CBDE28
:103BF00021960C5F1F4FC13ED105F9F6C3CFC70117
:103C00000E94340FBFCFCF92DF92EF92FF920F93BB
:103C10001F93CF93DF937C016B018A01E90180DF61
:103C2000F601EE0FFF1FEE0FFF1FED59F64F8081DB
:103C30009181F7019183808373DF000F111F000FC3
:103C4000111FF801ED59F64F81E0408151816281E9
:103C50007381413051056105710509F080E0F7017C
:103C600082875EDFCC0FDD1FCC0FDD1FCD59D64F15
:103C700088819981AA81BB81F70182839383A48380
:103C8000B5831682178210861186DF91CF911F911E
:103C90000F91FF90EF90DF90CF900895CF93DF9337
:103CA000EC012AEC30E04BEC50E069EC70E0ABDF6B
:103CB0002EEC30E04FEC50E06DEC70E0CE010C9655
:103CC000A2DF24ED30E045ED50E063ED70E0CE0181
:103CD000489699DF28ED30E049ED50E067ED70E05F
:103CE000CE01849690DF2EED30E04FED50E06DED8B
:103CF00070E0CE01C096DF91CF9185CFCF93DF9357
:103D00008091470890914808892BA1F48CE390E0BA
:103D10000E945655EC01198218821D861C86198E48
:103D2000188E1DA21CA219AA18AAB8DFD0934808A1
:103D3000C09347088091470890914808DF91CF9140
:103D400008952F923F924F925F926F927F928F923F
:103D50009F92AF92BF92CF92DF92EF92FF920F931A
:103D60001F93CF93DF93EC01DBDEFE01E950FD4FA3
:103D700080911F0B9091200B91838083D1DEFE01F7
:103D8000E750FD4F8091230B9091240B918380830A
:103D9000C7DEFE01E550FD4F8091270B9091280B67
:103DA00091838083BDDE8E0103501D4F6091470BD0
:103DB0007091480B8091490B90914A0B0E94D55A03
:103DC000F8016083718382839383AADE1E01FFEF73
:103DD0002F1AFCEF3F0A60914B0B70914C0B8091B6
:103DE0004D0B90914E0B0E94D55AF1016083718367
:103DF0008283938395DE20E030E048EC52E4F801C2
:103E000060817181828193810E94C35C2B013C019E
:103E100020E030E048EC52E4F10160817181828160
:103E200093810E94C35C4B015C0160914F0B7091C8
:103E3000500B8091510B9091520B0E94D55A20E06B
:103E400030E048EC52E40E94C35C6B017C012AE044
:103E500037ED43E25CE3C301B2010E945C5D1816DA
:103E60000CF02BC120E030E046EC52E4C301B2017B
:103E70000E94CF5A87FD06C0412C512C56EC652E6E
:103E800052E4752EF80140825182628273822AE0E8
:103E900037ED43E25CE3C501B4010E945C5D181696
:103EA0000CF014C120E030E046EC52E4C501B4014E
:103EB0000E94CF5A87FD06C0812C912C36ECA32E90
:103EC00032E4B32EF10180829182A282B3822AE091
:103ED00037ED43E25CE3C701B6010E945C5D181652
:103EE0000CF0FDC020E030E046EC52E4C701B60122
:103EF0000E94CF5A87FD06C0C12CD12C96ECE92E2A
:103F000092E4F92EFE01EB5FFC4FC082D182E28287
:103F1000F38206DE8091070B9091080BFE01E45FAF
:103F2000FC4F91838083FCDD80910B0B90910C0BF7
:103F3000FE01E25FFC4F91838083F2DD80910F0BE5
:103F40009091100BFE01E05FFC4F91838083E8DDD0
:103F500080912F0B9091300BA091310BB091320BCF
:103F6000FE01EE5EFC4F80839183A283B383D8DD94
:103F70008091330B9091340BA091350BB091360B9F
:103F8000FE01EA5EFC4F80839183A283B383C8DD88
:103F90008091370B9091380BA091390BB0913A0B6F
:103FA000FE01E65EFC4F80839183A283B383B8DD7C
:103FB0008091570B9091580BFE01E25EFC4F91836C
:103FC0008083AEDD80915B0B90915C0BFE01E05E27
:103FD000FC4F91838083A4DD80915F0B9091600BF7
:103FE000FE01EE5DFC4F918380839ADD80916F0B23
:103FF0009091700BFE01EC5DFC4F9183808390DD0E
:104000008091730B9091740BFE01EA5DFC4F9183DC
:10401000808386DD8091770B9091780BFE01E85DBF
:10402000FC4F918380837CDD8091F70A9091F80AA0
:10403000A091F90AB091FA0AFE01E75FFC4F0197DF
:10404000A105B10509F054C081E0808369DD80914C
:10405000FB0A9091FC0AA091FD0AB091FE0AFE01B4
:10406000E65FFC4F0197A105B10509F043C081E06F
:10407000808356DD8091FF0A9091000BA091010B87
:10408000B091020BC55FDC4F0197A105B105A1F509
:1040900081E08883DF91CF911F910F91FF90EF9086
:1040A000DF90CF90BF90AF909F908F907F906F9058
:1040B0005F904F903F902F9008954AE0442E47ED37
:1040C000542E43E2642E4CE3742EDCCE2AE0822E82
:1040D00027ED922E23E2A22E2CE3B22EF3CE8AE01D
:1040E000C82E87EDD82E83E2E82E8CE3F82E0ACF77
:1040F0001082ACCF1082BDCF1882CCCF2F923F92CE
:104100004F925F926F927F928F929F92AF92BF92E7
:10411000CF92DF92EF92FF920F931F93CF93DF9393
:10412000CDB7DEB765970FB6F894DEBF0FBECDBF33
:10413000998B888BF5DCE889F989E15BFD4F81E09B
:1041400040912F0A5091300A6091310A7091320AE1
:10415000452B462B472B09F480E08083E1DCE8897E
:10416000F989E05BFD4F81E04091330A5091340AB8
:104170006091350A7091360A452B462B472B09F47E
:1041800080E08083CDDCE889F989EF5AFD4F81E03A
:104190004091370A5091380A6091390A70913A0A71
:1041A000452B462B472B09F480E08083B9DC8091B6
:1041B0007F0A9091800AA091810AB091820AE889D1
:1041C000F989EE5AFD4F80839183A283B383A8DCE3
:1041D0008091830A9091840AA091850AB091860A01
:1041E000E889F989EA5AFD4F80839183A283B383DA
:1041F00097DC8091870A9091880AA091890AB091F2
:104200008A0AE889F989E65AFD4F80839183A2835F
:10421000B38386DC8091570A9091580AA091590A7D
:10422000B0915A0AE889F989E659FD4F8083918354
:10423000A283B38375DC80915B0A90915C0AA091A4
:104240005D0AB0915E0AE889F989E259FD4F8083E1
:104250009183A283B38364DC80915F0A9091600AAA
:10426000A091610AB091620AE889F989EE58FD4F80
:1042700080839183A283B38353DC8091670A9091FA
:10428000680AA091690AB0916A0AE889F989EA582E
:10429000FD4F80839183A283B38342DC80916B0ABC
:1042A00090916C0AA0916D0AB0916E0AE889F98923
:1042B000E658FD4F80839183A283B38331DC8091E4
:1042C0006F0A9091700AA091710AB091720AE88900
:1042D000F989E258FD4F80839183A283B38320DC68
:1042E0008091070A9091080AA091090AB0910A0AE0
:1042F000E889F989EE57FD4F80839183A283B383C8
:104300000FDC80910B0A90910C0AA0910D0AB091DC
:104310000E0AE889F989EA57FD4F80839183A283C9
:10432000B383FEDB80910F0A9091100AA091110ACD
:10433000B091120AE889F989E657FD4F808391838D
:10434000A283B383EDDBE889F989E257FD4F81E071
:104350002091DF093091E0092130310509F080E03A
:104360008083DEDBE889F989E157FD4F81E0209108
:10437000E3093091E4092130310509F080E08083C0
:10438000CFDBE889F989E057FD4F81E02091E7090B
:104390003091E8092130310509F080E08083C0DBED
:1043A000E889F989E455FD4F81E04091B7095091C2
:1043B000B8096091B9097091BA09452B462B472B72
:1043C00009F480E08083ACDBE889F989E355FD4F8F
:1043D00081E04091BB095091BC096091BD09709189
:1043E000BE09452B462B472B09F480E0808398DBE0
:1043F000E889F989E255FD4F81E04091BF0950916C
:10440000C0096091C1097091C209452B462B472B09
:1044100009F480E0808384DBE889F989E155FD4F68
:1044200081E040918F0A5091900A6091910A7091B9
:10443000920A452B462B472B09F480E0808370DBE2
:10444000E889F989E055FD4F81E04091930A509148
:10445000940A6091950A7091960A452B462B472B3A
:1044600009F480E080835CDBE889F989EF54FD4F33
:1044700081E04091970A5091980A6091990A709151
:104480009A0A452B462B472B09F480E0808348DBB2
:10449000E889F989EE54FD4F81E02091C7093091F8
:1044A000C8092130310509F080E0808339DBE889D3
:1044B000F989ED54FD4F81E02091CB093091CC0971
:1044C0002130310509F080E080832ADBE889F98911
:1044D000EC54FD4F81E02091CF093091D00921307B
:1044E000310509F080E080831BDB80918F0990917A
:1044F0009009A0919109B0919209E889F989EB544A
:10450000FD4F80839183A283B3830ADB809193095B
:1045100090919409A0919509B0919609E889F9893B
:10452000E754FD4F80839183A283B383F9DA8091AE
:10453000970990919809A0919909B0919A09E889F1
:10454000F989E354FD4F80839183A283B383E8DA32
:10455000E889F989E056FD4F81E040919F0950912B
:10456000A0096091A1097091A209452B462B472B08
:1045700009F480E08083D4DAE889F989EF55FD4FAA
:1045800081E04091A3095091A4096091A50970911F
:10459000A609452B462B472B09F480E08083C0DA1F
:1045A000E889F989EE55FD4F81E04091A7095091C6
:1045B000A8096091A9097091AA09452B462B472BA0
:1045C00009F480E08083ACDA8091970B9091980B8E
:1045D000A091990BB0919A0BE889F989EF56FD4F9C
:1045E00080839183A283B3839BDA80919B0B90910C
:1045F0009C0BA0919D0BB0919E0BE889F989EB561D
:10460000FD4F80839183A283B3838ADA80919F0BCD
:104610009091A00BA091A10BB091A20BE889F98910
:10462000E756FD4F80839183A283B38379DAE889CB
:10463000F989ED55FD4F81E02091F7093091F80996
:104640002130310509F080E08083E889F989EC5553
:10465000FD4F1082E889F989EB55FD4F108260DA31
:10466000E889F989EA55FD4F81E02091F3093091FD
:10467000F4092130310509F080E08083E889F98967
:10468000E955FD4F1082E889F989E855FD4F108200
:1046900047DAE889F989E755FD4F81E02091170A4B
:1046A0003091180A2130310509F080E0808338DA32
:1046B000E889F989E655FD4F81E020911B0A309188
:1046C0001C0A2130310509F080E0808329DAE8896D
:1046D000F989E555FD4F81E020911F0A3091200AAC
:1046E0002130310509F080E080831ADAE889F98900
:1046F000E356FD4F81E02091A70B3091A80B2130AC
:10470000310509F080E080830BDAE889F989E25607
:10471000FD4F81E02091AB0B3091AC0B2130310586
:1047200009F080E08083FCD9E889F989E156FD4FE2
:1047300081E02091AF0B3091B00B2130310509F0B1
:1047400080E08083EDD9088919890F531D4F80912E
:104750003F0A9091400AA091410AB091420AF801A3
:1047600080839183A283B383DBD9E888F988FBE354
:10477000EF1AFDEFFF0A8091430A9091440AA0913D
:10478000450AB091460AF70180839183A283B383DF
:10479000C7D98091470A9091480AA091490AB091DF
:1047A0004A0AC888D988F7E3CF1AFDEFDF0AF60175
:1047B00080839183A283B383F80140815181628118
:1047C0007381141615061606170644F041E050E0F2
:1047D00060E070E04083518362837383F70140811E
:1047E000518162817381141615061606170644F06E
:1047F00041E050E060E070E0408351836283738366
:10480000181619061A061B064CF081E090E0A0E08D
:10481000B0E0F60180839183A283B3830E94531595
:10482000FC01D6018D909D90AD90BC90D7014D912B
:104830005D916D917C91D8010D911D912D913C91CF
:104840000083118322833383448355836683778374
:1048500080869186A286B386E889F9897096FB8363
:10486000EA83E889F989E356FD4F20812983E889A5
:10487000F989EF56FD4F80819181A281B381E8894A
:10488000F989E755FD4F20812D83E889F989EE5498
:10489000FD4F20812C83E889F989ED55FD4F20815A
:1048A0002987E889F989EA55FD4F20812A87E88917
:1048B000F989E155FD4F20812E87E889F989E45572
:1048C000FD4F20812F87E889F989E257FD4F20802D
:1048D000E889F989E15BFD4F3080E889F989EB547B
:1048E000FD4F4081518162817381E889F989EE57DA
:1048F000FD4F0081118122813381E889F989EA58CD
:10490000FD4FC080D180E280F380E889F989E659C3
:10491000FD4F80809180A280B380E889F989EE5AAA
:10492000FD4F4080518062807380E889F98946A6F6
:1049300057A660AA71AA82AA93AAA4AAB5AAC6AACF
:10494000D7AAE0AEF1AE02AF13AF24AF35AFFE96FB
:104950004083518362837383E889F989EE5BFF4F5B
:104960003082E889F989ED5BFF4F20822F85E88945
:10497000F98923A72E8524A72C8125A740E450E0A0
:1049800060E070E0EA5BFF4F408351836283738392
:10499000E889F989EC5BFF4F2A852083E889F9894A
:1049A000EB5BFF4F29852083E889F989E65BFF4FA0
:1049B0002D812083E889F989E55BFF4F808391830E
:1049C000A283B383E889F989E15BFF4F8981808302
:1049D000A889B9895B968D919C915C9786339105E6
:1049E00009F034C281E790E1FD01E857FF4F918360
:1049F000808332961182108283E790E1369691830C
:104A00008083329611821082E889F98981A192A16E
:104A10004A97D1F485E890E1E457FF4F9183808372
:104A2000E889F989E257FF4F1182108287E890E107
:104A3000E889F989EC56FF4F91838083E889F989E9
:104A4000EA56FF4F118210820889198908561F4FB4
:104A5000E889F989E256FD4F20812983E889F9899F
:104A6000EB56FD4F80819181A281B3818D839E831E
:104A7000AF83B887E889F989E655FD4F90819C831B
:104A8000E889F989ED54FD4FA081A987E889F98962
:104A9000EC55FD4FB081BA87E889F989E955FD4F9A
:104AA00020812E87E889F989E055FD4F2080E8892B
:104AB000F989E355FD4F3080E889F989E157FD4FC9
:104AC0003081E889F989E05BFD4F2081E889F98927
:104AD000E754FD4F80819181A281B381E889F989F2
:104AE000EA57FD4F4081518162817381E889F989DC
:104AF000E658FD4FC080D180E280F380E889F989D3
:104B0000E259FD4F80809180A280B380E889F989C5
:104B1000EA5AFD4F4080518062807380F801468ED2
:104B2000578E60A271A282A293A2A4A2B5A2C6A22D
:104B3000D7A2E0A6F1A642A753A764A775A786A7A8
:104B400097A7A0ABB1AB22AB33AB338E248E2985B4
:104B5000258F80E490E0A0E0B0E086AB97ABA0AFFB
:104B6000B1AF2E8524AB8A8585AB9C8192AF8D81B8
:104B70009E81AF81B88583AF94AFA5AFB6AF2981D1
:104B800027AF838594858633910509F091C181E72C
:104B900090E1E889F989E05FFE4F91838083E8899D
:104BA000F989EE5EFE4F1182108283E790E1E88979
:104BB000F989E85EFE4F91838083E889F989E65E92
:104BC000FE4F11821082D80151968D919C914A9787
:104BD000E1F485E890E1E889F989EC5EFE4F918384
:104BE0008083E889F989EA5EFE4F1182108287E8A6
:104BF00090E1E889F989E45EFE4F91838083E8893A
:104C0000F989E25EFE4F11821082E888F988B0EEE1
:104C1000EB1ABEEFFB0AE889F989E156FD4F2081C6
:104C20002983E889F989E756FD4F80819181A28126
:104C3000B3818D839E83AF83B887E889F989E55571
:104C4000FD4F90819C83E889F989EC54FD4F3080B9
:104C5000E889F989EB55FD4FA081A987E889F98991
:104C6000E855FD4F2080E889F989EF54FD4FC08059
:104C7000E889F989E255FD4FD080E889F989E05744
:104C8000FD4F3081E889F989EF5AFD4F2081E8898D
:104C9000F989E354FD4F80819181A281B3818A8B90
:104CA0009B8BAC8BBD8BE889F989E657FD4F408122
:104CB000518162817381E889F989E258FD4F8080D2
:104CC0009180A280B380E889F989EE58FD4F408039
:104CD000518062807380E889F989E65AFD4F8081AE
:104CE0009181A281B381F701868F978FA0A3B1A391
:104CF00042A253A264A275A286A297A2A0A6B1A6C0
:104D000042A753A764A775A78A899B89AC89BD89E7
:104D100086A797A7A0ABB1AB22AB33ABD38EC48E23
:104D2000358E80E490E0A0E0B0E086AB97ABA0AF1A
:104D3000B1AF24AA298525AB8C8182AF8D819E815C
:104D4000AF81B88583AF94AFA5AFB6AF298127AF48
:104D5000838594858633910509F0D2C081E790E17F
:104D6000E889F989E856FE4F91838083E889F989BB
:104D7000E656FE4F1182108283E790E1E889F989B7
:104D8000E056FE4F91838083E889F989EE55FE4F06
:104D900011821082D70151968D919C914A97E1F42E
:104DA00085E890E1E889F989E456FE4F9183808394
:104DB000E889F989E256FE4F1182108287E890E176
:104DC000E889F989EC55FE4F91838083E889F98958
:104DD000EA55FE4F11821082E889F989E056FD4FAD
:104DE0008081882309F4B4C08A819B810E94381194
:104DF000E889F989EF55FD4F8081882309F4ADC01A
:104E0000C8010E943811E889F989EE55FD4F80816B
:104E1000882309F4A6C0C70165960FB6F894DEBFD3
:104E20000FBECDBFDF91CF911F910F91FF90EF90FB
:104E3000DF90CF90BF90AF909F908F907F906F90BA
:104E40005F904F903F902F900C9438118C339105C8
:104E5000D9F485E790E1E889F989E857FF4F918314
:104E60008083E889F989E657FF4F1182108287E72E
:104E700090E1E889F989E057FF4F91838083E889C1
:104E8000F989EE56FF4FBECD8E9709F0BDCD89E76B
:104E900090E1E889F989E857FF4F91838083E88999
:104EA000F989E657FF4F118210828FE790E1E1CF39
:104EB0008C33910589F485E790E1E889F989E05F11
:104EC000FE4F91838083E889F989EE5EFE4F11825F
:104ED000108287E790E16BCE8E9709F074CE89E758
:104EE00090E1E889F989E05FFE4F91838083E8894A
:104EF000F989EE5EFE4F118210828FE790E157CE66
:104F00008C33910589F485E790E1E889F989E856C1
:104F1000FE4F91838083E889F989E656FE4F11821E
:104F2000108287E790E12ACF8E9709F033CF89E787
:104F300090E1E889F989E856FE4F91838083E889FA
:104F4000F989E656FE4F118210828FE790E116CF65
:104F50008A819B810E94FC104BCFC8010E94FC10EB
:104F600052CFC70165960FB6F894DEBF0FBECDBF16
:104F7000DF91CF911F910F91FF90EF90DF90CF9035
:104F8000BF90AF909F908F907F906F905F904F9069
:104F90003F902F900C94FC10AF92BF92CF92DF9273
:104FA000EF92FF920F931F93CF93DF93EC018AE16F
:104FB00090E09C8F8B8F8BE190E09E8F8D8F89E1AD
:104FC00090E098A38F8F8FE090E09AA389A38EE161
:104FD00090E09CA38BA38EE090E09EA38DA385E43C
:104FE00090E098A78FA384E490E09AA789A7FE0198
:104FF000E856FF4F80E290E09487838781E290E05B
:10500000968785878FE190E0908B8787128A118A37
:10501000148A138A168A158A83E490E0908F878B0E
:1050200082E490E0928F818FE857FF4F83E290E017
:105030009487838784E290E09687858782E290E078
:10504000908B8787128A118A148A138A168A158A86
:1050500081E490E0908F878B80E490E0928F818F45
:10506000E75DFE4F118210823296118210823296D5
:1050700011821082CE0142D8CE010E94A11ECE0123
:1050800088559E4F41E050E0FC0157A746A7DE013E
:10509000A852BE4F24E030E09F963C932E939E97FB
:1050A0005E01F8EFAF1AFDEFBF0A28E030E0F5012E
:1050B00037A726A720E130E0FC013183208321E1DE
:1050C00030E0358324832FEF3FEF33832283378310
:1050D0002683628560876385618767E170E011964A
:1050E0007C936E9368E170E015967C936E931497B1
:1050F00013963C932E93129717963C932E931697E4
:105100001A966C911A9718966C9318971B966C9137
:105110001B9719966C9319976DE170E0F5017183F7
:1051200060836CE170E0758364833383228337830B
:1051300026836285608763856187BE016C5D7C4FD5
:10514000FB01608171818E010E5E1C4FF801C080F1
:10515000D180E280F38006501109F80100811181AD
:10516000FC01158F048FC48AD58AE68AF78A6130DC
:10517000710509F04EC0378F268FCE018A5D9C4F96
:10518000FC01808191819E012A5E3C4FF9014081A2
:1051900051816281738128503109F9012081318167
:1051A0005D963C932E935C9754964D935D936D93CF
:1051B0007C935797019781F58FEF9FEF5F969C93B4
:1051C0008E935E97DE01A85DBC4F8D919C911197E7
:1051D0001E974D915D916D917C91C05FDC4F288150
:1051E0003981F501358F248F448B558B668B778BF6
:1051F0000197A9F48FEF9FEF978F868FDF91CF9163
:105200001F910F91FF90EF90DF90CF90BF90AF90E4
:105210000895578F468FB1CF81E090E0CFCF81E0E6
:1052200090E0EACF2F923F924F925F926F927F92DF
:105230008F929F92AF92BF92CF92DF92EF92FF92A6
:105240000F931F93CF93DF9300D01F92CDB7DEB79C
:105250009C838B830E94901D6090A70A7090A80A7F
:105260000E94901D8090B70A9090B80A0E94901DED
:105270002090CF0A3090D00A0E94901DC090AB0AB7
:10528000D090AC0A0E94901DA090BB0AB090BC0ABE
:105290000E94901D4090D30A5090D40A0E94901D05
:1052A0000091AF0A1091B00A0E94901DE090BF0AD1
:1052B000F090C00A0E94901D8091D70A8983809146
:1052C000D80A8A8391011216130614F021E030E007
:1052D000A401B3018B819C8140960E942913920105
:1052E0001414150414F021E030E0A501B6018B81FF
:1052F0009C8188569F4F0E94291329813A8112165A
:10530000130614F021E030E0A701B8018B819C81E5
:10531000805E9E4F0F900F900F900F90DF91CF9176
:105320001F910F91FF90EF90DF90CF90BF90AF90C3
:105330009F908F907F906F905F904F903F902F90B5
:105340000C9429138F929F92AF92BF92CF92DF92CB
:10535000EF92FF92CF93DF937B010E94901DEC01AF
:10536000F70182A093A0A4A0B5A0C68CD78CE0A022
:10537000F1A08A819B818F30F7E29F070CF043C038
:1053800001969B838A838C819D818F3027E29207CF
:10539000ECF596012B7F215531092330310530F092
:1053A00096012B5531092330310518F401969D8360
:1053B0008C83C6010E940307882359F1F601EE0F82
:1053C000FF1FEE0FFF1FED59F64F80829182A282E0
:1053D000B382B501A401C6010E94C31CB601CE016F
:1053E0000E94CD190E947E1E0E944E1E90E080E019
:1053F000DF91CF91FF90EF90DF90CF90BF90AF9073
:105400009F908F9008951B821A82BDCF1D821C82AF
:10541000D0CF88ED93E00E946016E4CFCF93DF9366
:10542000EB010E94901D6E8D7F8D0E94CD1990E042
:1054300080E0DF91CF9108950E94901D0E94071A8D
:105440008CE394E00E9460160E9453150E94EE18AF
:1054500090E080E008950F931F93CF93DF93EC01CA
:1054600088819981009759F02A813B812617370757
:1054700030F081E0DF91CF911F910F9108958B0162
:105480006F5F7F4F0E94AE5D009759F099838883CC
:105490001B830A832C813D81232B59F7FC01108249
:1054A000E8CF80E0E7CF0F931F93CF93DF93EC011A
:1054B0008B01D1DF28813981811112C0211531057D
:1054C00019F0C9010E94F255198218821D821C82AE
:1054D0001B821A82CE01DF91CF911F910F91089507
:1054E0001D830C836DE078E0C9010E94A05EF2CFBD
:1054F00070E060E0D8CF2F923F924F925F926F9210
:105500007F928F929F92AF92BF92CF92DF92EF9253
:10551000FF920F931F93CF93DF93CDB7DEB7C85899
:10552000D1090FB6F894DEBF0FBECDBF8C01FC01D0
:1055300010821182128213821482158216821782BF
:10554000108611861286138614861586168617868F
:105550004C01F0E18F0E911CC4010E949F13580171
:1055600088E9A80EB11CC5010E949F136801E0EEF6
:10557000CE1AEEEFDE0AC6010E949F137801F8E50D
:10558000EF1AFEEFFF0AC7010E94A90F380188E257
:10559000681A8EEF780AC3010E94A90F2801E8EF6C
:1055A0004E1AEDEF5E0AC2010E94A90FF801E85CF5
:1055B000FD4F118210821382128215821482CF0154
:1055C00097DFF801E25CFD4F118210823296118262
:1055D0001082329611821082329611821082329697
:1055E000108231961082319610823196118210828B
:1055F0003296118210823296118210823296108277
:105600003196108231961082319610821182128268
:105610001382349610821182128213823496108281
:1056200011821282138234961082118212821382A6
:105630003496108211821282138234961082118263
:10564000128213823496108211821282138234964F
:105650001082118212821382349610821182128279
:105660001382349610821182128213823496108231
:105670001182128213823496108211821282138256
:105680003496108211821282138234961082118213
:1056900012821382349610821182128213823496FF
:1056A00010823196108231961082319610821182CA
:1056B00012821382349610821182128213823496DF
:1056C00010821182128213823496108231961082D7
:1056D0003196108231961082319610823196108266
:1056E0003196108231961082319610823196108256
:1056F0003196108231961082319610823196108246
:105700003196108231961082319610823196108235
:105710003196108231961082319610823196108225
:105720003196108231961082319610821182128247
:105730001382349610821182128213823496108260
:10574000118212821382D801AF53BD4F8CE0E7E182
:10575000F2E001900D928A95E1F7F801E353FD4FD5
:105760001082118212821382349610821182128268
:10577000138234961082118212821382349611821F
:1057800010823296118210823296118210823296E5
:105790001082118212821382349610821182128238
:1057A00013823496108211821282138234961082F0
:1057B0001182128213823496108211821282138215
:1057C00034961082118212821382349611821082D2
:1057D0003296118210823296118210823296108295
:1057E00011821282138234961082118212821382E5
:1057F000349610821182128213823496108231966E
:105800001082319610823196118210823296118266
:105810001082329611821082329610821182128288
:10582000138234961082118212821382349610826F
:105830001182128213823496118210823296118262
:105840001082329611821082329611821082329624
:105850001182108232961182108232961182108249
:105860003296118210821801F2ED2F1AFCEF3F0AD6
:10587000F1011082319611821082329611821082CB
:10588000CE0101960E949F1388E8FE013196D40153
:1058900001900D928A95E1F7CE0101960E949F1327
:1058A00088E8FE013196D50101900D928A95E1F7C5
:1058B000CE0101960E949F1388E8FE013196D60121
:1058C00001900D928A95E1F788E5F801848BE45602
:1058D000FF4F89E58083E857FF4F8AE58083CE013B
:1058E00001960E94A90F80E3FE013196D701019035
:1058F0000D928A95E1F7CE0101960E94A90F80E3EF
:10590000FE013196D30101900D928A95E1F7CE0107
:1059100001960E94A90F80E3FE013196D201019009
:105920000D928A95E1F7C80137DBF1011082C85763
:10593000DF4F0FB6F894DEBF0FBECDBFDF91CF9122
:105940001F910F91FF90EF90DF90CF90BF90AF909D
:105950009F908F907F906F905F904F903F902F908F
:105960000895CF93DF938091410890914208892B4D
:1059700051F483E393E00E945655EC01BCDDD093D3
:105980004208C09341088091410890914208DF91FC
:10599000CF910895CF93DF9380914008811114C077
:1059A00081E080934008DDDFEC0140960E94F51213
:1059B000CE0188569F4F0E94F512CE01805E9E4F09
:1059C0000E94F51210924008DF91CF910895CF9375
:1059D000DF93EB0120E030E040E85FE36A817B8108
:1059E0008C819D810E94CF5A811113C080E494E084
:1059F0000E946016B6DFFC01EC5AFF4F1082118244
:105A00001282138288559E4FFC01108A118A128AD5
:105A1000138A20E030E040E85FE36E817F81888573
:105A200099850E94CF5A811113C080E594E00E94AD
:105A3000601697DFFC01E452FF4F10821182128240
:105A4000138288529E4FFC01108A118A128A138A8F
:105A500020E030E040E85FE36A857B858C859D85AA
:105A60000E94CF5A811113C080E694E00E94601614
:105A700078DFFC01EC59FE4F1082118212821382F2
:105A8000885F9D4FFC01108A118A128A138A0E9436
:105A900053150E94EE1890E080E0DF91CF910895B9
:105AA000CF93DF93FC01E45CFD4F408151814115B0
:105AB000510501F1EC01C05CDD4F28813981885C22
:105AC0009D4F24173507E8F4FC01808191810097F0
:105AD000A1F0820F931FFC0180818A3031F08D305C
