:100000009EC10000CDC10000CBC10000C9C10000ED
:10001000C7C10000C5C10000C3C10000C1C10000CC
:10002000BFC10000BDC10000BBC10000B9C10000DC
:10003000B7C10000B5C10000B3C10000B1C10000EC
:10004000AFC100000C943E47ABC10000A9C1000045
:100050000C946C47A5C10000A3C100000C946A4633
:100060009FC100000C9434460C940A4699C10000CC
:1000700097C1000095C1000093C1000091C100002C
:100080000C9410478DC100008BC1000089C1000095
:1000900087C1000085C1000083C1000081C100004C
:1000A0007FC100007DC100000C94E24679C10000D0
:1000B00077C1000075C1000073C100000C94B44604
:1000C0006FC100006DC100006BC1000069C100007C
:1000D00067C1000065C1000063C1000061C100008C
:1000E0005FC100004E414E494E495459494E46CDDC
:1000F000CCCC3D0AD7233C17B7D13877CC2B3295DF
:1001000095E6241FB14F0A000020410000C84200BC
:10011000401C4620BCBE4CCA1B0E5AAEC59D740086
:10012000407A10F35A00A0724E18090010A5D4E8C6
:100130000000E87648170000E40B54020000CA9A59
:100140003B000000E1F505000080969800000040AB
:10015000420F000000A086010000001027000000F0
:1001600000E803000000006400000000000A000036
:100170000000000100000000002C76D888DC674FEA
:100180000823DFC1DFAE59E1B1B796E5E3E453C61A
:100190003AE651997696E8E6C28426EB898C9B6212
:1001A000ED407C6FFCEFBC9C9F40F2BAA56FA5F4BC
:1001B00090055A2AF75C936B6CF9676DC11BFCE0E4
:1001C000E40D47FEF520E6B500D0ED902E03009437
:1001D0003577050080841E080000204E0A000000CC
:1001E000C80C333333330F986E12831141EF8D21D6
:1001F00014893BE65516CFFEE6DB18D1844B381B3D
:10020000F77C1D901DA4BBE424203284725E228101
:1002100000C9F124ECA1E53D2700002100240027BE
:10022000002A002D00300033000101000004010706
:10023000010A0100002200250028002B002E0031B9
:1002400000340002010000050108010B010000203C
:10025000002300260029002C002F0032000001009E
:100260000003010601090105050505070508080841
:1002700008020202020A0A08080404040401010137
:10028000010101010103030303030303030407073F
:10029000070C0C0C0C0C0C0C0C02020202060606DD
:1002A00006060606060B0B0B0B0B0B0B0B010210C5
:1002B0002020080810204010204080020102010880
:1002C0000402010102040810204080804020100830
:1002D0000402018004020180402010080402010889
:1002E00004020101020408102040800102040810E9
:1002F00020408000000A0B02090C0D0E08070304C1
:1003000001000000000000000000000000000000EC
:1003100000000000000000000000000000000012CB
:1003200011100000000000000000000000000000AC
:1003300000000000000000000000B64788551124AE
:100340001FBECFEFD1E2DEBFCDBF00E00CBF18E093
:10035000A0E0B2E0EEE0F1EC00E00BBF02C00790DD
:100360000D92A034B107D9F724E1A0E4B8E001C0B0
:100370001D92AE32B207E1F711E0CEE9D1E000E024
:1003800006C021970109802FFE010E94615FCD39CF
:10039000D10780E00807A9F70E94A7490C9476606E
:1003A0002FCE8CBD9DBD08959C01803E910508F027
:1003B00021C5FC018827E052FE4F8F4F0C94615FEE
:1003C000C002CD02D602DF02EC02F502FA06FA06FE
:1003D000FA06FA06FA0602030F031C03FA062903BB
:1003E00032033B03480351035A0363036C03750351
:1003F000FA067E0387039003FA06FA06FA069903C3
:10040000A203AB03FA06FA06B403C103FA06FA061E
:10041000FA06CE03DB03E803FA06F503FE0307043E
:10042000FA06FA06FA06100419042204FA062F0442
:100430003C044904FA06FA06FA06560463047004FA
:10044000FA067D048A049704FA06FA06FA06A4045A
:10045000B104BE04FA06CB04D404DD04FA06FA069D
:10046000FA0601050E051B05FA06280535054205A5
:10047000FA06FA06FA064F0558056105FA06FA0665
:10048000FA06FA06FA06FA06FA066A0573057C0504
:10049000FA0685058E059705FA06FA06FA06A005FE
:1004A000AD05BA05FA06C705D405E105FA06FA0650
:1004B000FA06EE05FB050806FA0615061E062706CF
:1004C000FA06FA06FA06300639064206FA06FA066F
:1004D000FA06FA06FA06FA06FA06FA06FA06FA061C
:1004E000FA06E604EF04F804FA06FA06FA06FA0633
:1004F000FA06FA06FA06FA06FA06FA06FA06FA06FC
:10050000FA06FA06FA06FA06FA06FA06FA06FA06EB
:10051000FA06FA06FA06FA06FA06FA06FA06FA06DB
:10052000FA06FA06FA06FA06FA06FA06FA06FA06CB
:10053000FA06FA06FA06FA06FA06FA06FA06FA06BB
:10054000FA06FA06FA06FA06FA06FA06FA06FA06AB
:10055000FA064B0654066106FA066E06770684060E
:10056000FA06FA06FA0691069A06A706FA06B406ED
:10057000BD06CA06FA06FA06FA06D706E006ED0632
:1005800081E090E0A0E0B0E0809365099093660977
:10059000A0936709B09368090895109269091092B1
:1005A0006A0910926B0910926C09089510926D09F6
:1005B00010926E0910926F0910927009089581E0EF
:1005C00090E0A0E0B0E08093710990937209A0934D
:1005D0007309B09374090895109275091092760901
:1005E0001092770910927809089583E090E0A0E0D6
:1005F000B0E08093790990937A09A0937B09B09336
:100600007C09089588E790E0A0E0B0E0809391092C
:1006100090939209A0939309B0939409089588E761
:1006200090E0A0E0B0E08093950990939609A093A4
:100630009709B0939809089588E790E0A0E0B0E0AA
:100640008093990990939A09A0939B09B0939C0970
:1006500008951092A1091092A2091092A309109274
:10066000A40908951092A5091092A6091092A7094D
:100670001092A809089581E090E0A0E0B0E0809396
:10068000A9099093AA09A093AB09B093AC09089566
:100690001092AD091092AE091092AF091092B009F4
:1006A00008951092B1091092B2091092B3091092F4
:1006B000B40908951092B5091092B6091092B709BD
:1006C0001092B80908951092B9091092BA091092BF
:1006D000BB091092BC0908951092BD091092BE0981
:1006E0001092BF091092C00908951092C10910928A
:1006F000C2091092C3091092C40908951092C90941
:100700001092CA091092CB091092CC090895109248
:10071000CD091092CE091092CF091092D0090895F8
:100720001092D1091092D2091092D3091092D409D3
:1007300008951092E1091092E2091092E3091092D3
:10074000E40908951092E5091092E6091092E7096C
:100750001092E80908951092E9091092EA0910929E
:10076000EB091092EC09089581E090E0A0E0B0E080
:100770008093F5099093F609A093F709B093F809CF
:10078000089581E090E0A0E0B0E08093F9099093B3
:10079000FA09A093FB09B093FC0908958CE291E05B
:1007A000A0E0B0E08093090A90930A0AA0930B0A94
:1007B000B0930C0A08958CE291E0A0E0B0E0809341
:1007C0000D0A90930E0AA0930F0AB093100A089591
:1007D0008CE291E0A0E0B0E08093110A9093120ABD
:1007E000A093130AB093140A08951092190A109254
:1007F0001A0A10921B0A10921C0A089510921D0AE0
:1008000010921E0A10921F0A1092200A0895109248
:10081000210A1092220A1092230A1092240A0895A3
:100820001092310A1092320A1092330A1092340A4E
:1008300008951092350A1092360A1092370A1092D3
:10084000380A089581E090E0A0E0B0E08093390A92
:1008500090933A0AA0933B0AB0933C0A089585E02E
:1008600090E0A0E0B0E08093410A9093420AA09308
:10087000430AB093440A089585E090E0A0E0B0E018
:100880008093450A9093460AA093470AB093480A7A
:10089000089589E190E0A0E0B0E08093490A909348
:1008A0004A0AA0934B0AB0934C0A089582E390E061
:1008B000A0E0B0E08093590A90935A0AA0935B0A93
:1008C000B0935C0A089582E390E0A0E0B0E08093EA
:1008D0005D0A90935E0AA0935F0AB093600A089540
:1008E00082E390E0A0E0B0E08093610A9093620A16
:1008F000A093630AB093640A089582E390E0A0E0B5
:10090000B0E08093690A90936A0AA0936B0AB0934F
:100910006C0A089582E390E0A0E0B0E080936D0A55
:1009200090936E0AA0936F0AB093700A089582E3C1
:1009300090E0A0E0B0E08093710A9093720AA093D7
:10094000730AB093740A089580E991E0A0E0B0E0E2
:100950008093810A9093820AA093830AB093840AB9
:10096000089580E991E0A0E0B0E08093850A90933B
:10097000860AA093870AB093880A089580E991E0D7
:10098000A0E0B0E08093890A90938A0AA0938B0A32
:10099000B0938C0A08951092910A1092920A1092C4
:1009A000930A1092940A08951092950A1092960A4A
:1009B0001092970A1092980A08951092990A10922C
:1009C0009A0A10929B0A10929C0A08951092A90B01
:1009D0001092AA0B1092AB0B1092AC0B08951092D0
:1009E000AD0B1092AE0B1092AF0B1092B00B08959E
:1009F0001092B10B1092B20B1092B30B1092B40B79
:100A0000089588E592E0A0E0B0E08093A90A909371
:100A1000AA0AA093AB0AB093AC0A089588E592E0C5
:100A2000A0E0B0E08093AD0A9093AE0AA093AF0A25
:100A3000B093B00A089588E592E0A0E0B0E080931A
:100A4000B10A9093B20AA093B30AB093B40A08957E
:100A50008EE190E0A0E0B0E08093B90A9093BA0AEA
:100A6000A093BB0AB093BC0A08958EE190E0A0E089
:100A7000B0E08093BD0A9093BE0AA093BF0AB093E2
:100A8000C00A08958EE190E0A0E0B0E08093C10A32
:100A90009093C20AA093C30AB093C40A0895109217
:100AA000D10A1092D20A1092D30A1092D40A089551
:100AB0001092D50A1092D60A1092D70A1092D80A2C
:100AC00008951092D90A1092DA0A1092DB0A109255
:100AD000DC0A08951092F90A1092FA0A1092FB0AA1
:100AE0001092FC0A08951092FD0A1092FE0A1092CC
:100AF000FF0A1092000B08951092010B1092020B46
:100B00001092030B1092040B08951092090B10928F
:100B10000A0B10920B0B10920C0B089510920D0BF8
:100B200010920E0B10920F0B1092100B0895109252
:100B3000110B1092120B1092130B1092140B0895BC
:100B400085E090E0A0E0B0E08093210B9093220B31
:100B5000A093230BB093240B089585E090E0A0E0D0
:100B6000B0E08093250B9093260BA093270BB093B6
:100B7000280B089585E090E0A0E0B0E08093290B79
:100B800090932A0BA0932B0BB0932C0B089584EB1E
:100B900095E1A0E0B0E08093310B9093320BA093ED
:100BA000330BB093340B089584EB95E1A0E0B0E0F3
:100BB0008093350B9093360BA093370BB093380B83
:100BC000089584EB95E1A0E0B0E08093390B909319
:100BD0003A0BA0933B0BB0933C0B089585E090E05B
:100BE000A0E0B0E08093490B90934A0BA0934B0B8D
:100BF000B0934C0B089585E090E0A0E0B0E08093C6
:100C00004D0B90934E0BA0934F0BB093500B089548
:100C100085E090E0A0E0B0E08093510B9093520B00
:100C2000A093530BB093540B08951092590B10924C
:100C30005A0B10925B0B10925C0B089510925D0B97
:100C400010925E0B10925F0B1092600B0895109241
:100C5000610B1092620B1092630B1092640B08955B
:100C60001092710B1092720B1092730B1092740B06
:100C700008951092750B1092760B1092770B1092CC
:100C8000780B08951092790B10927A0B10927B0BCF
:100C900010927C0B08951092890C10928A0C10927D
:100CA0008B0C10928C0C08958CE390E0A0E0B0E0E7
:100CB00080938D0C90938E0CA0938F0CB093900C1E
:100CC000089581E090E0A0E0B0E08093910C9093D3
:100CD000920CA093930CB093940C08951092990CDD
:100CE00010929A0C10929B0C10929C0C08958CE31D
:100CF00090E0A0E0B0E080939D0C90939E0CA093B8
:100D00009F0CB093A00C089581E090E0A0E0B0E0CB
:100D10008093A10C9093A20CA093A30CB093A40C6D
:100D200008951092B10C1092B20C1092B30C109264
:100D3000B40C08958CE390E0A0E0B0E08093B50C93
:100D40009093B60CA093B70CB093B80C089581E0C3
:100D500090E0A0E0B0E08093B90C9093BA0CA0931F
:100D6000BB0CB093BC0C08951092C10C1092C20C35
:100D70001092C30C1092C40C08958CE390E0A0E094
:100D8000B0E08093C50C9093C60CA093C70CB093B1
:100D9000C80C089581E090E0A0E0B0E08093C90C19
:100DA0009093CA0CA093CB0CB093CC0C08951092E6
:100DB000D90C1092DA0C1092DB0C1092DC0C089516
:100DC0008CE390E0A0E0B0E08093DD0C9093DE0C2B
:100DD000A093DF0CB093E00C089581E090E0A0E0D8
:100DE000B0E08093E10C9093E20CA093E30CB093FD
:100DF000E40C0895220F331F220F331FF901EB5922
:100E0000F64F10821182128213820895883591055F
:100E10000CF04BC085359105CCF4803391054CF531
:100E20008D3291059CF48C319105BCF4893191058A
:100E30006CF48E30910564F48B3091053CF400978E
:100E400029F097FD08C00297049728F481E00895DF
:100E50000F970997D8F380E00895863291053CF406
:100E6000843291059CF74F970397A8F7EFCF8997A6
:100E7000FBCF843491056CF4813491053CF78A33BF
:100E800091052CF4873391050CF7C397EDCFCD97DF
:100E9000EBCF8E34910534F48B349105BCF6875436
:100EA0009109E2CF81559109DFCF863891051CF574
:100EB000833891055CF68237910584F48F3691056D
:100EC0002CF6883691053CF4853691050CF0BECFA2
:100ED0008B559109C9CF89569109C6CF8C37910599
:100EE0003CF4893791050CF0B1CF83579109BCCF01
:100EF0008D579109B9CF803D91058CF48D3C9105BA
:100F00000CF0A4CF843991053CF4813991050CF0A3
:100F10009DCF8D589109A8CF895C9109A5CF8A3DB5
:100F200091053CF4873D91050CF090CF835D9109CC
:100F30009BCF8D5D910998CF8CB58C7F8CBD8DB585
:100F40008E7F8DBD0895AF92BF92CF92DF92EF92C8
:100F5000FF920F931F93CF93DF936C017B018B0163
:100F6000040F151FEB015E01AE18BF08C017D107B3
:100F700059F06991D601ED91FC910190F081E02D3D
:100F8000C6011995892B79F7C501DF91CF911F9182
:100F90000F91FF90EF90DF90CF90BF90AF900895AA
:100FA000FC01538D448D252F30E0842F90E0821B6F
:100FB000930B541710F0CF96089501970895FC01F4
:100FC000918D828D981761F0A28DAE0FBF2FB11D4C
:100FD0005D968C91928D9F5F9F73928F90E00895A4
:100FE0008FEF9FEF0895FC01918D828D981731F05E
:100FF000828DE80FF11D858D90E008958FEF9FEFB2
:101000000895FC01918D228D892F90E0805C9F4F87
:10101000821B91098F73992708958AEE9CE0F1DF76
:1010200021E0892B09F420E0822F0895FC01A48D92
:10103000A80FB92FB11DA35ABF4F2C91848D90E0FA
:1010400001968F739927848FA689B7892C93A089DD
:10105000B1898C91837080648C93938D848D981367
:1010600006C00288F389E02D80818F7D80830895FA
:10107000EF92FF920F931F93CF93DF93EC0181E0E8
:10108000888F9B8D8C8D98131AC0E889F98980818F
:1010900085FF15C09FB7F894EE89FF896083E889C2
:1010A000F98980818370806480839FBF81E090E0B4
:1010B000DF91CF911F910F91FF90EF900895F62E41
:1010C0000B8D10E00F5F1F4F0F731127E02E8C8DDB
:1010D0008E110BC00FB607FCFACFE889F989808121
:1010E00085FFF5CFCE01A2DFF2CFEB8DEC0FFD2F08
:1010F000F11DE35AFF4FF0829FB7F8940B8FEA89F6
:10110000FB8980818062D0CF682F8AEE9CE0B0CFCF
:10111000CF93DF93EC01888D8823B1F0AA89BB8936
:10112000E889F9898C9185FD03C0808186FD0CC01A
:101130000FB607FCF7CF8C9185FFF2CF808185FF3A
:10114000EDCFCE0173DFEACFDF91CF91089580E03C
:1011500090E0892B21F061DF81110E94000080E086
:1011600090E0892B49F080E090E0892B29F00E94E3
:10117000000081110E94000080E090E0892B49F07E
:1011800080E090E0892B29F00E94000081110E94EC
:10119000000080E090E0892B49F080E090E0892B0E
:1011A00029F00E94000081110C94000008958150E4
:1011B000823108F05AC0E82FF0E08827ED51F74F50
:1011C0008F4F0C94615F03090709F508FB08FF08BE
:1011D00035090A09100914091A091E0922092809E2
:1011E0002C093509300936093A09809180008F773A
:1011F000809380000895809180008F7DF9CF809149
:101200008000877FF5CF84B58F7784BD089584B53E
:101210008F7DFBCF8091B0008F778093B0000895D1
:101220008091B0008F7DF9CF809190008F7780936F
:1012300090000895809190008F7DF9CF809190006B
:10124000877FF5CF8091A0008F778093A0000895CD
:101250008091A0008F7DF9CF8091A000877FF5CF8E
:10126000809120018F778093200108958091200143
:101270008F7DF9CF80912001877FF5CFCF93DF93CA
:10128000282F30E0F901ED50FD4F8491F901E3552D
:10129000FD4FD491F901E959FD4FC491CC2399F048
:1012A000811185DFEC2FF0E0EE0FFF1FE35BFD4FB8
:1012B000A591B491EC91ED2381E090E009F480E0F8
:1012C000DF91CF91089580E090E0FACF1F93CF9304
:1012D000DF93282F30E0F901ED50FD4F8491F901A3
:1012E000E355FD4FD491F901E959FD4FC491CC2349
:1012F000A1F0162F81115BDFEC2FF0E0EE0FFF1F46
:10130000ED5CFD4FA591B4918FB7F894EC9111115C
:1013100008C0D095DE23DC938FBFDF91CF911F9162
:101320000895DE2BF8CFCF93DF9390E0FC01E355D7
:10133000FD4F249189599D4FFC0184918823C9F068
:1013400090E0880F991FFC01E75EFD4FA591B491D5
:10135000FC01ED5CFD4FC591D49161110DC09FB7AB
:10136000F8948C91209582238C938881282328835C
:101370009FBFDF91CF910895623051F49FB7F894E9
:101380003C91822F809583238C93E8812E2BEFCF85
:101390008FB7F894EC912E2B2C938FBFEACF82302D
:1013A000910538F0880F991F880F991F05970197AD
:1013B000F1F708953FB7F894809157089091580835
:1013C000A0915908B0915A0826B5A89B05C02F3F97
:1013D00019F00196A11DB11D3FBFBA2FA92F982F5B
:1013E0008827BC01CD01620F711D811D911D42E056
:1013F000660F771F881F991F4A95D1F708958F921E
:101400009F92AF92BF92CF92DF92EF92FF926B01C9
:101410007C01D0DF4B015C01C114D104E104F10473
:10142000B1F0C8DF681979098A099B09683E7340E1
:101430008105910588F321E0C21AD108E108F1087D
:1014400088EE880E83E0981EA11CB11CE5CFFF90AA
:10145000EF90DF90CF90BF90AF909F908F900895C6
:101460002FB7F894609153087091540880915508F3
:10147000909156082FBF0895CF92DF92EF92FF927E
:10148000CF93DF93EC01603282E07807CCF5653BC7
:10149000710514F064EB70E0898128E830E0281BC6
:1014A000310987FD3395220F331F220F331F690146
:1014B000330FEE08FF088A8128E532E0281B310946
:1014C00087FD3395220F331F220F331F032E000C8D
:1014D000440B550B2C193D094E095F09DB0177FFC1
:1014E00002C0B0E0A0E00E94F65D24EB30E040E0F6
:1014F00050E00E94D05DC20ED31EE41EF51EB60160
:10150000E881E03370F5298188E890E0821B910939
:1015100027FD9395880F991F880F991F68177907E2
:101520007CF02A8188E592E0821B910927FD939542
:10153000880F991F880F991F681779070CF4CB0142
:101540000297880F991F4FB7F8942E2F30E0F901BA
:10155000EE0FFF1FE20FF31FE957F24F92838183D3
:101560004FBFDF91CF91FF90EF90DF90CF90089524
:101570001F93CF93DF93EC01162F8881803308F0FF
:101580004DC061E0812FCFDE8881282F30E0F90146
:10159000EE0FFF1FE20FF31FE957F24F1F73608139
:1015A000607C612B608319821A822CE0622F0E947A
:1015B000425F829FB001112430E020E0AB01420F76
:1015C000531FFA01EE0FFF1FE40FF51FE957F24F0B
:1015D000908196FD16C02F5F3F4F2C30310571F77B
:1015E000813009F51092800082E080938100109292
:1015F000850010928400B19A80916F008260809380
:101600006F00E8818E2F90E0FC01EE0FFF1FE80FC6
:10161000F91FE957F24F8081806480838881DF91D0
:10162000CF911F910895823061F4109290008093C1
:101630009100109295001092940088BB80937100E5
:10164000E0CF833069F41092A00082E08093A10083
:101650001092A5001092A40089BB80937200D1CF94
:101660008111CFCF1092200182E08093210110924E
:101670002501109224018ABB80937300C2CFAF92E0
:10168000BF92CF92DF92EF92FF920F931F93CF936F
:10169000DF936B017A01EC01C25BD74F28813CE0FC
:1016A000389F8001399F100D1124A090170EB12C86
:1016B00027FF1FC0FB011182108288818F5F888302
:1016C00088819801280F311D87FD3A95F6012A156A
:1016D0003B051CF488818C30BCF18081918104969B
:1016E00080349C4908F471C0F60180819181049690
:1016F0006EC088819801280F311D87FD3A952A1503
:101700003B05DCF68881A801480F511D87FD5A95DD
:10171000FA01EE0FFF1FE40FF51FE957F24F80812A
:1017200086FFCBCF8881F801E80FF11D87FDFA9580
:10173000CF01EE0FFF1FE80FF91FE957F24F80812D
:1017400060E08F73C3DDB9CF808191812881A801CA
:10175000420F511D27FD5A959A01FA01EE0FFF1F06
:10176000E20FF31FE957F24F21813281820F931F5D
:10177000F7019183808388819801280F311D87FDAF
:101780003A95F901EE0FFF1FE20FF31FE957F24FF1
:10179000808186FF21C08881080F111D87FD1A9561
:1017A000F801EE0FFF1FE00FF11FE957F24F8081A4
:1017B00061E08F73DF91CF911F910F91FF90EF90B8
:1017C000DF90CF90BF90AF9081CD80E49CE9F7018E
:1017D000918380838FEF8883DF91CF911F910F9149
:1017E000FF90EF90DF90CF90BF90AF900895CF9390
:1017F000CFB7F89480914D08811123C0ECE9F2E055
:101800008491E2EEF2E09491E82FF0E0EE0FFF1FFA
:10181000E75EFD4FA591B491EC91E92319F461E0E5
:1018200085E354DD61E085E37EDD8CB580618CBDB0
:101830008CB580648CBD61E084E375DD61E083E399
:1018400072DD80914D088F5F80934D08CFBFCF919F
:1018500008958CB58C608CBD8CB58F7D8CBD6CDB98
:10186000C6CF0F931F93CF93DF938B01EA01AB0198
:10187000415051094433510508F0E9C02230310587
:1018800008F0E5C048E3429FF001439FF00D1124AA
:10189000E80FF91FE60FF71F81E080836C2F232BE1
:1018A00009F4D2C061E0802F3EDD209749F460E06A
:1018B000802F0CDDCE01DF91CF911F910F91089504
:1018C000CF3FD10511F461E0BFC0F801ED50FD4FED
:1018D000E491E150E23108F0B2C0F0E08827EC5822
:1018E000F34F8F4F0C94615F860C8D0C920C9C0C07
:1018F000A60C1F0DB00CB80CC00CCA0CD40CDE0C1E
:10190000ED0CF70C1F0D010D0B0D150D84B5806846
:1019100084BDC7BDD0E0C0E0CDCF84B5806284BDBA
:10192000C8BDF8CF80918000806880938000D093FC
:101930008900C0938800EECF809180008062809300
:101940008000D0938B00C0938A00E4CF8091800008
:10195000886080938000D0938D00C0938C00DACF94
:101960008091B00080688093B000C093B300D2CF64
:101970008091B00080628093B000C093B400CACF61
:1019800080919000806880939000D0939900C093DC
:101990009800C0CF80919000806280939000D09397
:1019A0009B00C0939A00B6CF80919000886080938E
:1019B0009000D0939D00C0939C00ACCF8091A0007C
:1019C00080688093A0008091A0008F7B8093A0000E
:1019D000D093A900C093A8009DCF8091A000806201
:1019E0008093A000D093AB00C093AA0093CF8091C6
:1019F000A00088608093A000D093AD00C093AC009D
:101A000089CF80912001806880932001D0932901A3
:101A1000C09328017FCF80912001806280932001B4
:101A2000D0932B01C0932A0175CF8091200188604B
:101A300080932001D0932D01C0932C016BCF60E0E7
:101A4000C038D1050CF03FCF802F40DC63CFC1E020
:101A5000D0E030CFCF93DF93D0E0C0E0CE01D6D935
:101A6000882319F0CE010E94D4012196C13ED105F0
:101A7000A9F7DF91CF9108958FB7F8948091E90C81
:101A80008FBF08954F925F926F927F928F929F9235
:101A9000AF92BF92CF92DF92EF92FF92CF93DF93FC
:101AA000EC016C897D898E899F8988889988AA88AC
:101AB000BB88CE8CDF8C0D2C000CEE08FF0860314B
:101AC00027E272078105910529F0161617061806F8
:101AD0001906ACF0A7019601C501B4010E94335F5D
:101AE000DF91CF91FF90EF90DF90CF90BF90AF90BC
:101AF0009F908F907F906F905F904F9008950E947D
:101B0000A45C20E030E44CE157E40E94925E2B019B
:101B10003C01488E598E6A8E7B8EC501B4010E94AD
:101B2000A45CA30192010E94035D4B015C01C7010B
:101B3000B6010E94A45C9B01AC01C501B4010E94E6
:101B4000035D0E94FA5ECCCFFC01118210821382E9
:101B500012821582148217821682108611861286CE
:101B600013861486158616861786108A118A128A9D
:101B7000138A108E118E128E138E158E148E178E60
:101B8000168E10A211A212A213A214A215A216A2BE
:101B900017A210A611A612A613A614A615A681E0D8
:101BA00090E097A786A780E197E2A0E0B0E0848B61
:101BB000958BA68BB78B08958EBD00000DB407FEE4
:101BC000FDCF8EB50895DF92EF92FF920F931F9392
:101BD000CF93DF93EC01D62E122F032FF42EE52E98
:101BE00060E0888573DB8D2D8068E6DF89878E2D28
:101BF000E3DF8F2DE1DF802FDFDF812FDDDF61E08D
:101C0000888564DB8985DF91CF911F910F91FF90CB
:101C1000EF90DF9008953F924F925F926F927F9284
:101C20008F929F92AF92BF92CF92DF92EF92FF92EC
:101C30000F931F93CF93DF9300D000D0CDB7DEB7C3
:101C40009E838D83362E49015A012701380101DE1A
:101C500060E0ED81FE81808539DB832DADDFED8194
:101C6000FE81818780E0A8DF80E0A6DF80E0A4DF3E
:101C700080E0A2DF61E0ED81FE81808527DB60E00E
:101C8000ED81FE81808522DB832D96DFED81FE8153
:101C9000818780E091DFF82E80E08EDF082F80E0E2
:101CA0008BDF182F80E088DF202F30E050E040E00D
:101CB0003F2969017A01FE2CED2CDC2CCC24C12AB1
:101CC000FE2CED2CDC2CCC24C82A61E0ED81FE81B9
:101CD0008085FCDA8C249D24AE24BF244820592022
:101CE0006A207B20A30192012C253D254E255F25EE
:101CF000632D8D819E8167DFED81FE818185269632
:101D00000FB6F894DEBF0FBECDBFDF91CF911F910C
:101D10000F91FF90EF90DF90CF90BF90AF909F908A
:101D20008F907F906F905F904F903F900895CF93EA
:101D3000DF93EC0161E08885F6DA61E08885C6DA38
:101D400088DD60E08885C2DA80E036DF898780E060
:101D500033DF80E031DF80E02FDF80E02DDF61E0E6
:101D60008885DF91CF91B2CA8F929F92AF92BF9236
:101D7000CF92DF92EF92FF920F931F93CF93DF9357
:101D8000EC018B015A016901D2DF85E090E0A0E00F
:101D9000B0E008301105C1F1B4F487E090E0A0E0B4
:101DA000B0E00230110581F186E090E0A0E0B0E003
:101DB0000430110549F101301105A1F488E090E0EB
:101DC000A0E0B0E021C083E090E0A0E0B0E000320D
:101DD0001105D1F05CF484E090E0A0E0B0E00031C7
:101DE000110591F080E090E0DC010EC082E090E00F
:101DF000A0E0B0E00034110539F081E090E0A0E00F
:101E0000B0E00038110571F7582F442733272227F7
:101E1000E12CF12C00E01FE06CE6CE01FCDEB50108
:101E200090E080E00E94A25C25ED34E045E352E4BE
:101E30000E94035D20E030E04AE754E40E94925E95
:101E400028EB3EE145E05EE30E94035D4B015C014F
:101E500026E636E646EA5EE30E94925E20E030E047
:101E600040E85FE30E942D5E0E94FF5E603180F4D7
:101E70002CEE31E548E35EE3C501B4010E94925EB9
:101E800020E030E040E85FE30E942D5E0E94FF5EAC
:101E9000862F8F71262F30E050E040E0542F432FE3
:101EA000322F222722273F7144275527282B60E114
:101EB000CE0189DE0D2C000CEE08FF08A6013327A9
:101EC0002227E12CF12C01E010E06CE6CE01A3DE2C
:101ED000E12CF12C8701E39421E030E040E050E078
:101EE00060E0CE0198DE1FE0E12EF12C00E010E072
:101EF00023E030E040E050E06CE6CE018CDEE12CE7
:101F000010E8F12E01E010E020E030E840E050E081
:101F10006CE6CE0180DEE12CF12C8701F39420E009
:101F200031E040E050E060E0CE0175DEE12C14E0ED
:101F3000F12E00E010E020E034E040E050E060E00E
:101F4000CE0169DE2FEF3FEF4FE050E064E1CE01BC
:101F50003ADE20E030E0A90165E1CE0134DE1FE089
:101F6000E12EF12C00E010E025E030E040E050E010
:101F70006CE6CE0150DEE12CF12C8701F39420E0D9
:101F800032E040E050E06CE6CE0145DEE12C10E2AC
:101F9000F12E00E010E020E030E240E050E06CE69E
:101FA000CE0139DE64E670E080E090E0DF91CF9111
:101FB0001F910F91FF90EF90DF90CF90BF90AF9067
:101FC0009F908F901CCACF93DF93EC01188A198AD7
:101FD0001A8A1B8A83E590E00E94D10160E086E1C5
:101FE00075D983E090E00197F1F78EA58295807F07
:101FF000E3DD8FE090E00197F1F761E086E1DF91AA
:10200000CF9164C9CF92DF92EF92FF920F931F930B
:10201000CF93DF938C0183E590E00E94D10160E0D3
:1020200086E154D983E090E00197F1F7F80186A5A5
:1020300097A524E0880F991F2A95E1F78F60BCDDF2
:102040008FE090E00197F1F7C4E0D0E0C12CD12CF3
:102050007601FE2CED2CDC2CCC2481E0ADDDC82AF1
:102060002197B9F761E086E131D9F801C08AD18AB8
:10207000E28AF38ADF91CF911F910F91FF90EF9049
:10208000DF90CF9008952F923F924F925F926F9280
:102090007F928F929F92AF92BF92CF92DF92EF92F8
:1020A000FF920F931F93CF93DF9300D01F92CDB772
:1020B000DEB79C838B834B015A011901FA82E982B6
:1020C000FA01408051806280738020E030E0A901F5
:1020D000C301B2010E942B5F181674F4F60120812F
:1020E000318142815381C301B2010E942D5EF5010D
:1020F0006083718382839383F80140805180628082
:102100007380F401A68DB78D208931894289538966
:102110000E94F65D6B017C01EB81FC81E659FF4F6B
:102120008081882309F440C0C414D504E604F70470
:102130000CF440C0F801C082D182E282F3828B812C
:102140009C818C5B9F4F9C838B83FC018081918160
:10215000A281B381F10180839183A283B383E9815A
:10216000FA8180819181892B41F0C4018BDCEB8164
:10217000FC8160837183828393830F900F900F9013
:102180000F90DF91CF911F910F91FF90EF90DF9013
:10219000CF90BF90AF909F908F907F906F905F9007
:1021A0004F903F902F9008954C145D046E047F046F
:1021B0000CF0C0CFF501408051806280738020E038
:1021C00030E04AEF56E4C301B2010E949E5C87FFF3
:1021D000B1CF20E030E040E85FE3C301B2010E94EC
:1021E0002E5EF5016083718382839383A3CFCF93A7
:1021F000DF93EC0183B183B1E0E0F1E08081808185
:10220000CE0184569E4FFEDE83B183B180B180B192
:10221000CE0184539E4FF6DE83B183B180B180B18D
:10222000CE0184509E4FDF91CF91ECCE889A0895D5
:10223000889808958E9A08958E980895EBE0F1E0BD
:102240008081886080830895EBE0F1E08081877F62
:1022500080830895149A08951498089560E0FC010D
:10226000818934C860E0FC01838530C861E0FC01ED
:1022700081892CC861E0FC01838528C8CF93DF9356
:10228000EC01FC01ED58FF4F1082379781E080830D
:1022900060E08B851BD88D899E89892B29F060E0B1
:1022A0008989DF91CF9112C8DF91CF910895CF93A3
:1022B000DF93EC01898D0E943E092C8D28171906A9
:1022C00021F48D8DDF91CF91089580E0FBCFCF93E6
:1022D000DF93EC018F890E943E092C8D2817190687
:1022E00021F48D8DDF91CF91089580E0FBCFCF93C6
:1022F000DF93EC018D859BA961E0911101C060E045
:102300000E9466098B899CA9992321F09DA961E00F
:10231000911101C060E0DF91CF910C946609CF93D9
:10232000DF93EC018D859BA960E0911101C061E014
:102330000E9466098B899CA9992321F09DA960E0E0
:10234000911101C061E0DF91CF910C946609CF93A8
:10235000DF93EC0161E08F850E9466098CA98823D8
:1023600021F061E08D890E946609CF58DF4F188205
:10237000DF91CF910895CF93DF93EC01FC01EE5DE7
:10238000FC4F1082EE58F1098081811103C0CE010B
:102390004096DDDFFE01EB56FD4F8081811104C0C8
:1023A000CE018C569F4FD3DFFE01EA56FD4F808150
:1023B000811104C0CE01885E9E4FC9DF64E670E0E3
:1023C00080E090E0DF91CF911AC8CF93DF93EC01CA
:1023D00060E08F850E9466098CA9882321F060E067
:1023E0008D890E946609CF58DF4F81E08883DF9195
:1023F000CF910895CF92DF92EF92FF920F931F93A8
:10240000CF93DF93FC01DC01A05CBF4F4D935D9344
:102410006D937C93139714964D935D936D937C937A
:10242000139714960D931D932D933C931397EC01E2
:10243000C45BDF4FE88282AD882351F092A99111ED
:102440004CC037FF50C01D921D921D921C921397D5
:1024500043AD54AD65AD76AD1416150616061706D8
:102460003CF597AD992321F10D911D912D913C9152
:1024700013976801790137FF07C0CC24DD2476016A
:10248000C01AD10AE20AF30A4C155D056E057F05F4
:102490007CF437FF07C070956095509541955F4F6C
:1024A0006F4F7F4F4D935D936D937C931397892F5F
:1024B000DF01A75ABF4F1D921D921D921C921397C8
:1024C000E759FF4F91E09083DF91CF911F910F91DA
:1024D000FF90EF90DF90CF9008951016110612062E
:1024E00013060CF4B0CF80E0B3CF0F931F93CF93BC
:1024F000DF93EC01062F8B8D81110DC0CE01E7DE3D
:10250000182FCE01D4DE0111182F812FDF91CF912A
:102510001F910F910895CE01CADE182FCE01D7DE8C
:10252000F2CFCF93DF93EC01FC01ED58FF4F81E038
:102530008083AE014C5B5F4FFA0180819181A28163
:10254000B3819E0126593F4FF9012081222309F4CE
:1025500040C00196A11DB11DFA0180839183A28321
:10256000B383FE01EA58FF4F20813181C90195955F
:1025700087958C0F9D1F32970190F081E02D20FFF1
:1025800008C0DC012D913C91E20FF31F0190F08116
:10259000E02D19958D899E89892BF9F0FE01E65869
:1025A000FF4F20813181C901959587958C0F9D1F23
:1025B000C858DF4FE881F98120FF08C0DC012D9168
:1025C0003C91E20FF31F0190F081E02DDF91CF915C
:1025D00019940197A109B109BFCFDF91CF91089557
:1025E0008F929F92AF92BF92CF92DF92EF92FF9223
:1025F0000F931F93CF93DF93EC01FC01E75AFF4F3A
:1026000060817181828193810E94A25C6B017C0157
:102610006EA97FA988AD99AD0E94A45C9B01AC0115
:1026200060E074E284E799E40E94925E4B015C01F1
:10263000FE01EB59FF4F60817181828193810E947D
:10264000A25C9B01AC01C501B4010E94925E4B01EA
:102650005C018E01035A1F4F20E030E040E05FE351
:102660000E94035DA70196010E942E5E0E94FF5EFC
:10267000F8016083718382839383CF59DF4FA50173
:102680009401C701B6010E942E5E0E94FF5E68831E
:1026900079838A839B83DF91CF911F910F91FF9064
:1026A000EF90DF90CF90BF90AF909F908F90089564
:1026B0000F931F93CF93DF93FC01ED58FF4F2081C1
:1026C0002223B9F07A9700811181228133813896D3
:1026D00040815181628173810417150726073707EE
:1026E00010F1EC01CBDDCE01DF91CF911F910F9165
:1026F00077CFFC01E759FF4F20812223A1F070978B
:10270000008111812281338134964081518162811F
:102710007381041715072607370728F0DF91CF913B
:102720001F910F91FECEDF91CF911F910F910895D0
:10273000FC01E759FF4F2081222361F070978081CF
:102740009181A281B3810196A11DB11D80839183E6
:10275000A283B38308950F931F93FC01E45BFF4FA3
:102760002081211112C0389700811181228133818B
:1027700034964081518162817381041715072607C1
:1027800037073CF41F910F91CACDFC0122A92111FA
:10279000F9CF1F910F91ABCDCF92DF92EF92FF92C5
:1027A0000F931F93CF93DF93EC017B016A018901A3
:1027B0009A01AB01B80188819981D6DA8C8188357C
:1027C00071F49601A701B8018A819B81DF91CF91B5
:1027D0001F910F91FF90EF90DF90CF90C5CADF91CE
:1027E000CF911F910F91FF90EF90DF90CF900895C0
:1027F000CF93DF93EC018C818835A9F586EE92E1C9
:102800009983888386E193E19B838A838AE391E1BC
:10281000FE01EC58FF4F9183808332961182108223
:1028200086E391E132969183808332961182108201
:1028300082E391E1329691838083329611821082F5
:102840008EE291E1329691838083329611821082DA
:10285000888199816CDA8C81883589F48A819B81A1
:10286000DF91CF9164CA893529F486EF92E199838B
:102870008883CCCF8A3551F686E093E1F8CFDF919B
:10288000CF910895FC0181E08683878311861086AD
:1028900012868CE291E0A0E0B0E0868F978FA0A333
:1028A000B1A342E350E060E070E042A353A364A30D
:1028B00075A346A357A360A771A782A793A7A4A750
:1028C000B5A788E790E0A0E0B0E086A797A7A0AB07
:1028D000B1AB12AA13AA14AA15AA84E690E0A0E04C
:1028E000B0E086AB97ABA0AFB1AF12AE13AE14AEF3
:1028F00015AE16AE17AEDF01A05CBF4F1D921D9244
:102900001D921C92139714961D921D921D921C925B
:10291000139714961D921D921D921C921397149654
:102920001C9211961D921D921D921C921397149643
:102930001D921D921D921C92139714961D921D922A
:102940001D921C92139714961D921D921D921C921B
:10295000139714961D921D921D921C921397149614
:102960001D921D921D921C92139714961D921D92FA
:102970001D921C92139714961C9211961C921196FC
:102980001C9211961C9211961C9211961C921196F3
:102990001C9211961C9211961C9211961C921196E3
:1029A0001C921486138616861586108A1786128A3C
:1029B000118A148A138A168A158A108E178A128E23
:1029C000118E11968AE391E111969C938E93129643
:1029D00011961C921E92129686E391E111969C9399
:1029E0008E93129611961C921E92129682E391E19A
:1029F00011969C938E93129611961C921E9212968B
:102A00008EE291E18D939C93EE57FF4F11821082DD
:102A1000089508958FEF9FEF0895089508950895FC
:102A200008950895089508950895089508950895BE
:102A300008950895089508950895089508950895AE
:102A40000895089580914B0890914C08892B41F48A
:102A500081E090E00E94255790934C0880934B08AA
:102A600080914B0890914C0808950F931F93CF933A
:102A7000DF938B01E7DFF801C2A1D3A1868D978D8B
:102A80008530910529F14CF40497B1F090E080E095
:102A9000DF91CF911F910F9108958630910511F12B
:102AA0000B97A1F76BE070E081E29EE00E94B80A0C
:102AB000BE0181E29EE009C064E070E088E19EE032
:102AC0000E94B80ABE0188E19EE00E943C0ADECF67
:102AD00065E070E08BE19EE00E94B80ABE018BE1E8
:102AE0009EE0F3CF66E070E08EE19EE00E94B80ABF
:102AF000BE018EE19EE0E9CF8091470890914808A1
:102B0000892B91F480E790E00E942557FC013196D3
:102B10009C012B5C3F4F119217AAE217F307D9F7DC
:102B200090934808809347088091470890914808FF
:102B300008954F925F926F927F92AF92BF92CF9221
:102B4000DF92EF92FF920F931F93CF93DF93EB01EE
:102B5000D3DF8C01CAA8DBA84EA45FA468A879A81B
:102B6000AEA0BFA0EE8CFF8C4AA15BA19601B7017D
:102B70000E94310CC301B2010E94FF099601A50118
:102B8000B701C8010E94310C90E080E0DF91CF9145
:102B90001F910F91FF90EF90DF90CF90BF90AF907B
:102BA0007F906F905F904F900895CF93DF93EB01EC
:102BB000A3DF6AA98E8D0E94930990E080E0DF91E7
:102BC000CF910895CF93DF93EB0196DF2AA93BA91C
:102BD0004AA15BA16E8D7F8D0E94310C90E080E058
:102BE000DF91CF9108958091400890914108892B01
:102BF000E1F585E390E00E942557FC0181E090E03B
:102C0000A0E0B0E080839183A283B3838483958323
:102C1000A683B78380879187A287B387158614869A
:102C200016861786108A118A128A138A148A158AC0
:102C3000168A178A108E118E138E128E12A213A26C
:102C400014A215A217A216A210A611A612A613A6C8
:102C500014A615A616A617A610AA11AA12AA13AA98
:102C600014AAF0934108E0934008809140089091A5
:102C700041080895CF93DF93B6DFEC0185E40E940D
:102C80003E0921E0892B09F420E02C8FACDFEC0118
:102C900084E40E943E0921E0892B09F420E02D8F75
:102CA000A2DFEC0183E40E943E0921E0892B09F4B4
:102CB00020E02E8F98DFEC0182E40E943E0921E0A3
:102CC000892B09F420E02F8F8EDFEC0181E40E9434
:102CD0003E0921E0892B09F420E028A384DFEC01E0
:102CE00080E40E943E0921E0892B09F420E029A319
:102CF000DF91CF91089577DFBDCF75DFFC0114AA76
:102D000090E080E00895FC0101900020E9F7319700
:102D1000AF01481B590BBC018AEE9CE00C94A30741
:102D20008F929F92AF92BF920F931F93CF93DF9397
:102D3000CDB7DEB7A1970FB6F894DEBF0FBECDBFFB
:102D400019A2423008F44AE08E010F5D1F4F842E15
:102D5000912CB12CA12CA50194010E94FC5DE62FC1
:102D6000B901CA01EA30ECF4E05DD801EE938D01BF
:102D7000232B242B252B79F790E080E0109711F07E
:102D8000CD01C1DFA1960FB6F894DEBF0FBECDBF57
:102D9000DF91CF911F910F91BF90AF909F908F9037
:102DA0000895E95CE2CFCF92DF92EF92FF92CF934A
:102DB000DF9397FF18C06B017C018DE20E948408AD
:102DC000EC0166277727CB016C197D098E099F09D5
:102DD0004AE0A6DF8C0F9D1FDF91CF91FF90EF900F
:102DE000DF90CF9008954AE0DF91CF91FF90EF9070
:102DF000DF90CF9095CFBC01990F880B990BD3CF63
:102E000082CF882319F089E997E0FACF82E997E029
:102E1000FCCF2F923F924F925F926F927F928F9250
:102E20009F92AF92BF92CF92DF92EF92FF920F9359
:102E30001F93CF93DF93CDB7DEB762970FB6F894A9
:102E4000DEBF0FBECDBF1C018C010C5B1F4F1E8768
:102E50000D87D8014D915D916D917C917C01B8E415
:102E6000EB0EF11CF70180819181A281B381610198
:102E7000FCE4CF0ED11CF60120810A5D1F4F5801E2
:102E80007F964F012223A1F1F10122A9F8012083AD
:102E900021E0F4012083411551056105710559F4C4
:102EA000F10102A113A124A135A1EB59FF4F008329
:102EB0001183228333838101005C1F4FF80140801E
:102EC000518062807380910127593F4F5901481604
:102ED00059066A067B06B4F5481759076A077B0747
:102EE000DCF1D6018C91811137C0D5011C923AC119
:102EF00021E0481759076A077B070CF020E0F5012D
:102F000020832A013B0177FF07C044245524320166
:102F1000441A550A660A770A8C019D01B7FF07C05B
:102F2000002711279801081B190B2A0B3B0BBB2408
:102F3000B39440165106620673060CF4B12CF401EA
:102F4000B082A9CF84159505A605B70554F6841758
:102F50009507A607B7072CF6F5018081882329F28B
:102F6000D6018C9181110DC0F60180818111BDCFF8
:102F7000D4016C9181E06827C101B7DA8111B5CF26
:102F800005C060E0C101B1DA8111EECFD1019A969E
:102F90002D913D914D915C919D9729833A834B836F
:102FA0005C835E962D913D914D915C9191972D831F
:102FB0003E834F83588792962D913D914D915C9120
:102FC000959729873A874B875C87F70180819181A4
:102FD000A281B381ED85FE85C080D180E280F3803F
:102FE000F8014081518162817381F101E359FF4F02
:102FF0001082319610823101FFE66F0E711CF301D1
:103000001082910120593F4FF901108232961082AF
:103010004C015D01841A950AA60AB70AB7FE08C0DA
:10302000B094A09490948094811C911CA11CB11C1C
:10303000481759076A077B072CF0C81AD90AEA0A09
:10304000FB0A04C0C41AD50AE60AF70AD501C4016E
:10305000B595A795979587958D879E87AF87B88BF0
:1030600081010E581F4F8C149D04AE04BF0408F05C
:103070009EC0D10196960D90BC91A02DBA8BA98BC4
:1030800081E0F9018083D8018C93F1018285882346
:1030900009F45CC00E94300AD10118960D911C9170
:1030A000012E000C220B330B601B710B820B930B58
:1030B000693E73408105910508F448C00E94300ABA
:1030C000F1017187608788E993E09ADE8CE993E0EB
:1030D00097DE60E070E0CB0166DE82EA93E090DE8E
:1030E000C701B60160DE88EA93E08ADEC501B4015B
:1030F0005ADE8EEA93E084DE4AE06D857E858F8518
:1031000098890EDE85EB93E07BDE69817A818B8185
:103110009C8149DE8BEB93E073DE69857A858B8534
:103120009C8541DE81EC93E06BDE6D817E818F8139
:10313000988539DE87EC93E063DE85E396E060DE18
:1031400089899A8958DE8DE098E05ADEF101EB59C1
:10315000FF4F09891A89C801B0E0A0E080839183FC
:10316000A283B38360E0C101C0D9882339F0F101A3
:10317000EC5BFF4F108211821282138262960FB6AF
:10318000F894DEBF0FBECDBFDF91CF911F910F919D
:10319000FF90EF90DF90CF90BF90AF909F908F9077
:1031A0007F906F905F904F903F902F9008952D8566
:1031B0003E854F8558892C153D054E055F0508F461
:1031C00050C089819A81AB81BC818C159D05AE056B
:1031D000BF0544F4AD81BE811196BA8BA98B81E005
:1031E000F30150CFC701B6010E94A45C2B013C0142
:1031F00069817A818B819C810E94A45C9B01AC01D6
:10320000C301B2010E94925E2B013C016D817E815F
:103210008F81988529853A854B855C85621B730B68
:10322000840B950B0E94A45C9B01AC01C301B2010D
:103230000E94035D2B013C0169857A858B859C8505
:103240000E94A45C9B01AC01C301B2010E942E5EEE
:103250000E94FA5E7A8B698B81E0F101E359FF4F9E
:1032600011CFD501C40129813A814B815C81821B38
:10327000930BA40BB50BC816D906EA06FB065CF443
:103280004D815E814E5F5F4F5A8B498B81E0F1012A
:10329000E159FF4FF7CEC501B4016C197D098E09C4
:1032A0009F090E94A45C2B013C0169817A818B817A
:1032B0009C810E94A45C9B01AC01C301B2010E94ED
:1032C000925E2B013C016D817E818F8198852985DD
:1032D0003A854B855C85621B730B840B950B0E94B2
:1032E000A45C9B01AC01C301B2010E94035D2B01F0
:1032F0003C0169857A858B859C850E94A45C9B0135
:10330000AC01C301B2010E942E5E0E94FA5E7A8B6C
:10331000698B81E0F101E259FF4FB4CECF93DF9387
:10332000EC018DEC93E06CDD6AA17BA18CA19DA1E9
:103330003ADD8DE098E0DF91CF9162CD0F931F933E
:10334000CF93DF938C01EB018AE793E059DD85E3AE
:1033500096E056DDF80184810E948408CE014BDDA1
:1033600042DCDF91CF911F910F91D8CFEF92FF9266
:103370000F931F93CF93DF93182F092F7B016115B4
:10338000710569F50E943E0931E020E0019709F0DE
:1033900030E0C32FD22F82E0E816F10408F045C0D8
:1033A00080ED93E02DDD85E396E02ADD84ED93E06A
:1033B00027DD812F902F1FDD85E396E021DD8EE351
:1033C00098E01EDDCE0117DD0EDCA8DF90E080E086
:1033D000DF91CF911F910F91FF90EF900895D0E072
:1033E000C0E061307105B9F6812F163310F08AEC18
:1033F000810F20917B00982F9870277F922B9093BC
:103400007B008770806480937C0080917A00806468
:1034100080937A0080917A0086FDFCCF80917800BD
:10342000C0917900DC2FC82FB6CF81E090E0D0CFDB
:103430000F931F93CF93DF93FC01208131812115DE
:103440003105C1F1EC01822F0E943E0921E0892B58
:1034500009F420E02B876A85261701F11E821F825E
:10346000188619860E811F81288539858A819B815E
:10347000AC81BD81081719072A073B07DCF081E002
:10348000682788810E94660937DB70E060E08881E8
:103490009981DF91CF911F910F9168CF8E819F818C
:1034A000A885B9850196A11DB11D8E839F83A8872C
:1034B000B987D8CFDF91CF911F910F910895CF9306
:1034C000DF93EB0119DB6AA97BA98E8D9F8D4EDFFF
:1034D00090E080E0DF91CF910895CF92DF92EF925C
:1034E000FF92CF93DF93EB01CB010E940607882365
:1034F00051F1FE01EE0FFF1FEE0FFF1FEB59F64FCC
:10350000C080D180E280F38086ED93E079DC85E3B2
:1035100096E076DC84ED93E073DCCE016CDC85E331
:1035200096E06EDC8EE398E06BDCC701B6013BDC15
:103530005ADBF4DE90E080E0DF91CF91FF90EF90D6
:10354000DF90CF9008958AED93E05ADCF3CF0F938C
:103550001F93CF93DF938C01D0E0C0E0CE010E9497
:103560000607882319F0BE01C801B7DF2196C13EC6
:10357000D105A1F7DF91CF911F910F9108958CEFA5
:1035800093E03EDC8AE292E03BDC8AE092E038DCC9
:1035900081E094E035DC27DBC1DE90E080E0089537
:1035A000CF93DF93EC018BE094E02ADC8FE094E092
:1035B00027DC8C8D26DC83E194E022DC8D8D21DC00
:1035C00087E194E01DDC8E8D1CDC8BE194E018DC3F
:1035D0008F8D17DC8FE194E013DC88A112DC83E28D
:1035E00094E00EDC89A10DDCCE01DF91CF9196CE67
:1035F000FADAD6CF87E294E003DCF5DA3BDBF3DAE4
:10360000CFDF7ADA70E060E088E090E0AFDE74DA75
:1036100070E060E089E090E0A9DE6EDA70E060E0E2
:103620008AE090E0A3DE68DA70E060E08DE090E090
:103630009DDE90E080E008954F925F926F927F92BE
:103640008F929F92AF92BF92CF92DF92EF92FF92B2
:103650000F931F93CF936B017C01742EAC019B01E0
:103660000E942F5F882391F08EE294E0CF911F910A
:103670000F91FF90EF90DF90CF90BF90AF909F9011
:103680008F907F906F905F904F903DCB4601570198
:10369000E894B7F82FEF3FEF4FE75FE7C501B401BC
:1036A0000E942F5F81110DC02FEF3FEF4FE75FE7C3
:1036B000C501B4010E949E5C18161CF482E394E0DC
:1036C000D5CF2FEF3FEF4FE75FE4C701B6010E9470
:1036D0002B5F18161CF486E394E0C8CF2FEF3FEF62
:1036E0004FE75FECC701B6010E949E5C87FDF3CFF8
:1036F00020E030E0A901C701B6010E949E5C10E005
:1037000000E087FF08C08DE20E9484088C01F7FA70
:10371000F094F7F8F094C0E060E070E080E09FE3A0
:103720007C1641F020E030E040E251E40E94925EDD
:10373000CF5FF6CFA70196010E942E5E2B013C01C0
:103740000E94FF5E4B015C014AE0EADA7C01E00E78
:10375000F11ECC23A9F1C501B4010E94A25C9B011A
:10376000AC01C301B2010E942D5E4B015C018EE2EF
:103770000E948408E80EF91EC15010F120E030E0EC
:1037800040E251E4C501B4010E94035D2B013C01FC
:103790000E94FF5E4B01B12CA12C4AE0C501B4018F
:1037A000BFDAE80EF91EC501B4010E94A25C9B01BC
:1037B000AC01C301B2010E942D5E4B015C01DCCF64
:1037C000C701CF911F910F91FF90EF90DF90CF90A5
:1037D000BF90AF909F908F907F906F905F904F9031
:1037E00008958F929F92AF92BF92CF92DF92EF9205
:1037F000FF920F931F93CF93DF93EC018AE392E044
:10380000FFDA8FE494E0FCDA6E0184E6C81A8EEFEA
:10381000D80AC6010E94420D0E94A45C4B015C01C3
:10382000FE01EB54FD4F60817181828193810E9482
:10383000A45C9B01AC01C501B4010E94925E42E010
:10384000FBDE8FE594E0DCDA7E01E4E3EE1AEEEFD6
:10385000FE0AC7010E94420D0E94A45C4B015C015C
:10386000FE01E754FD4F60817181828193810E9446
:10387000A45C9B01AC01C501B4010E94925E42E0D0
:10388000DBDE8FE694E0BCDA8E0104501E4FC801E7
:103890000E94420D0E94A45C4B015C01C354DD4FA9
:1038A000688179818A819B810E94A45C9B01AC0123
:1038B000C501B4010E94925E42E0BEDE94D92EDDC5
:1038C00086E392E09DDA8FE494E09ADAF601A68D21
:1038D000B78D20893189428953890E94F65D63DA68
:1038E0008FE594E08DDAF701A68DB78D20893189B7
:1038F000428953890E94F65D56DA8FE694E080DAB9
:10390000F801A68DB78D20893189428953890E949B
:10391000F65D49DA68D9DF91CF911F910F91FF9041
:10392000EF90DF90CF90BF90AF909F908F90F6CCAC
:10393000CF92DF92EF92FF92CF93DF93EC018881D9
:103940009981AA81BB81181619061A061B0644F034
:1039500081E090E0A0E0B0E088839983AA83BB83F4
:103960008C819D81AE81BF81181619061A061B062F
:1039700044F081E090E0A0E0B0E08C839D83AE83D2
:10398000BF8388859985AA85BB85181619061A06EE
:103990001B0644F081E090E0A0E0B0E088879987C2
:1039A000AA87BB878AE394E02BDA8FE494E028DAD5
:1039B0006E857F85888999890E94A45C6B017C0152
:1039C000688179818A819B810E94A45C9B01AC0102
:1039D000C701B6010E94925E42E02EDE8FE594E0C0
:1039E0000FDA6A897B898C899D890E94A45C6B01AE
:1039F0007C016C817D818E819F810E94A45C9B01F2
:103A0000AC01C701B6010E94925E42E015DE8FE66E
:103A100094E0F6D96E897F89888D998D0E94A45C87
:103A20006B017C01688579858A859B850E94A45CF1
:103A30009B01AC01C701B6010E94925E42E0FCDD31
:103A4000CE01DF91CF91FF90EF90DF90CF9066CCC9
:103A5000CAD86EDF90E080E00895FC0180819181FA
:103A6000009711F00C94C15708950C94C1570C9411
:103A7000C1570C94C1570C94C1570C94C1570C9466
:103A8000C1570C94C1570C94C1570C94C1570C9456
:103A9000C1570C94C1570C94C1570C94C1570C9446
:103AA000C1570C94C1570C94C1570C94C1570C9436
:103AB000C1570C94C1570C94C1570C94C1570C9426
:103AC000C1570C94C157CF92DF92EF92FF920F93A0
:103AD0001F93CF93DF938C016A017B01EC01CC0F24
:103AE000DD1F642FCE010E94C25D9927F7FC9A95D5
:103AF0008F2D7E2D6D2DCE0101960E94C25D0D5839
:103B000011090330110588F4B701992777FD9095C5
:103B1000892FCE0144960E94C25D6F2D772788279A
:103B20009927CE0145960E94C25D90E080E0DF912A
:103B3000CF911F910F91FF90EF90DF90CF9008955C
:103B40004F925F926F927F928F929F92AF92BF92AD
:103B5000CF92DF92EF92FF920F931F93CF93DF9359
:103B60008C01EC01CC0FDD1FCE010E94BA5D882EC6
:103B7000912CB12CA12CCE0101960E94BA5DC82EC9
:103B8000D12CF12CE12C0D5811090330110508F04E
:103B90005AC0CE0144960E94BA5D482E512C712C19
:103BA000612CCE0145960E94BA5D082F10E030E0EE
:103BB00020E08FEF481651046104710429F50F3F8E
:103BC00011052105310501F58FEF88169104A10437
:103BD000B104C9F58FEFC816D104E104F10499F5D9
:103BE0006FEF7FEFCB01DF91CF911F910F91FF908E
:103BF000EF90DF90CF90BF90AF909F908F907F908D
:103C00006F905F904F9008950038110521053105A0
:103C10003CF7FE2CED2CDC2CCC24C701B601680D42
:103C2000791D8A1D9B1D320155244424640D751D88
:103C3000861D971D302F222711270027600F711F27
:103C4000821F931FD0CF00E010E09801412C512C2F
:103C5000320180E8C816D104E104F104D4F2C0CFE7
:103C6000EF92FF920F931F93CF93DF9380914508BC
:103C700090914608892B51F586E090E00E942557E7
:103C80007C0190E080E05CDF1616170654F1C70156
:103C90000E942A0DD0E0C0E0CE010E9406078823D2
:103CA00069F0FE01EE0FFF1FEE0FFF1FEB59F64FFD
:103CB0004081518162817381CE0105DF2196C63931
:103CC000D10551F7F0924608E092450880914508E9
:103CD00090914608DF91CF911F910F91FF90EF9047
:103CE000089583E090E02CDF613071058105910536
:103CF00031F505E619E0D0E0C0E0CE010E940607EC
:103D00008823B1F0CE011CDFF801608371838283C8
:103D100093836F3F7F4F8F4F9F4F51F4CE010E948F
:103D2000D401F8014081518162817381CE01CBDEE3
:103D300021960C5F1F4FC13ED105F9F6C3CFC701D5
:103D40000E942A0DBFCFCF92DF92EF92FF920F9386
:103D50001F93CF93DF937C016B018A01E90180DF20
:103D6000F601EE0FFF1FEE0FFF1FEB59F64F80819C
:103D70009181F7019183808373DF000F111F000F82
:103D8000111FF801EB59F64F81E0408151816281AA
:103D90007381413051056105710509F080E0F7013B
:103DA00082875EDFCC0FDD1FCC0FDD1FCB59D64FD6
:103DB00088819981AA81BB81F70182839383A4833F
:103DC000B5831682178210861186DF91CF911F91DD
:103DD0000F91FF90EF90DF90CF900895CF93DF93F6
:103DE000EC012AEC30E04BEC50E069EC70E0ABDF2A
:103DF0002EEC30E04FEC50E06DEC70E0CE010C9614
:103E0000A2DF24ED30E045ED50E063ED70E0CE013F
:103E1000489699DF28ED30E049ED50E067ED70E01D
:103E2000CE01849690DF2EED30E04FED50E06DED49
:103E300070E0CE01C096DF91CF9185CFCF93DF9315
:103E40008091490890914A08892BA1F48CE390E075
:103E50000E942557EC01198218821D861C86198E36
:103E6000188E1DA21CA219AA18AAB8DFD0934A085E
:103E7000C09349088091490890914A08DF91CF91F9
:103E800008952F923F924F925F926F927F928F92FE
:103E90009F92AF92BF92CF92DF92EF92FF920F93D9
:103EA0001F93CF93DF93EC01DBDEFE01E551FD4F65
:103EB0008091210B9091220B91838083D1DEFE01B2
:103EC000E351FD4F8091250B9091260B91838083C8
:103ED000C7DEFE01E151FD4F8091290B90912A0B25
:103EE00091838083BDDE8E010F501D4F6091490B81
:103EF00070914A0B80914B0B90914C0B0E94A45CEB
:103F0000F8016083718382839383AADE1E01FBE044
:103F10002F1AFDEF3F0A60914D0B70914E0B80916F
:103F20004F0B9091500B0E94A45CF1016083718350
:103F30008283938395DE20E030E048EC52E4F80180
:103F400060817181828193810E94925E2B013C018C
:103F500020E030E048EC52E4F1016081718182811F
:103F600093810E94925E4B015C016091510B7091B4
:103F7000520B8091530B9091540B0E94A45C20E053
:103F800030E048EC52E40E94925E6B017C012AE032
:103F900037ED43E25CE3C301B2010E942B5F1816C8
:103FA0000CF02AC120E030E046EC52E4C301B2013B
:103FB0000E949E5C87FD06C0412C512C56EC652E5C
:103FC00052E4752EF80140825182628273822AE0A7
:103FD00037ED43E25CE3C501B4010E942B5F181684
:103FE0000CF013C120E030E046EC52E4C501B4010E
:103FF0000E949E5C87FD06C0812C912C36ECA32E7E
:1040000032E4B32EF10180829182A282B3822AE04F
:1040100037ED43E25CE3C701B6010E942B5F18163F
:104020000CF0FCC020E030E046EC52E4C701B601E1
:104030000E949E5C87FD06C0C12CD12C96ECE92E17
:1040400092E4F92EFE01E750FD4FC082D182E28258
:10405000F38206DE8091090B90910A0BFE01FD5F51
:1040600091838083FDDD80910D0B90910E0BFE01FD
:10407000EE5FFC4F91838083F3DD8091110B909173
:10408000120BFE01EC5FFC4F91838083E9DD809190
:10409000310B9091320BA091330BB091340BFE0198
:1040A000EA5FFC4F80839183A283B383D9DD809143
:1040B000350B9091360BA091370BB091380BFE0168
:1040C000E65FFC4F80839183A283B383C9DD809137
:1040D000390B90913A0BA0913B0BB0913C0BFE0138
:1040E000E25FFC4F80839183A283B383B9DD80912B
:1040F000590B90915A0BFE01EE5EFC4F9183808329
:10410000AFDD80915D0B90915E0BFE01EC5EFC4F8C
:1041100091838083A5DD8091610B9091620BFE01FC
:10412000EA5EFC4F918380839BDD8091710B9091BF
:10413000720BFE01E85EFC4F9183808391DD8091DC
:10414000750B9091760BFE01E65EFC4F91838083A8
:1041500087DD8091790B90917A0BFE01E45EFC4F34
:10416000918380837DDD8091F90A9091FA0AA09174
:10417000FB0AB091FC0AFE01E350FD4F0197A10537
:10418000B10509F054C081E080836ADD8091FD0AA9
:104190009091FE0AA091FF0AB091000BFE01E2503F
:1041A000FD4F0197A105B10509F043C081E080836F
:1041B00057DD8091010B9091020BA091030BB09100
:1041C000040BC150DD4F0197A105B105A1F581E0B8
:1041D0008883DF91CF911F910F91FF90EF90DF9037
:1041E000CF90BF90AF909F908F907F906F905F9097
:1041F0004F903F902F9008954AE0442E47ED542E63
:1042000043E2642E4CE3742EDDCE2AE0822E27EDAD
:10421000922E23E2A22E2CE3B22EF4CE8AE0C82EF8
:1042200087EDD82E83E2E82E8CE3F82E0BCF108298
:10423000ACCF1082BDCF1882CCCF2F923F924F923D
:104240005F926F927F928F929F92AF92BF92CF9226
:10425000DF92EF92FF920F931F93CF93DF93CDB72F
:10426000DEB765970FB6F894DEBF0FBECDBF998B52
:10427000888BF6DCE889F989ED5BFD4F81E04091A0
:10428000310A5091320A6091330A7091340A452BF9
:10429000462B472B09F480E08083E2DCE889F9892A
:1042A000EC5BFD4F81E04091350A5091360A6091F8
:1042B000370A7091380A452B462B472B09F480E0CA
:1042C0008083CEDCE889F989EB5BFD4F81E040918A
:1042D000390A50913A0A60913B0A70913C0A452B89
:1042E000462B472B09F480E08083BADC8091810A59
:1042F0009091820AA091830AB091840AE889F98991
:10430000EA5BFD4F80839183A283B383A9DC809114
:10431000850A9091860AA091870AB091880AE88957
:10432000F989E65BFD4F80839183A283B38398DC98
:104330008091890A90918A0AA0918B0AB0918C0A87
:10434000E889F989E25BFD4F80839183A283B3837F
:1043500087DC8091590A90915A0AA0915B0AB0912A
:104360005C0AE889F989E25AFD4F80839183A28330
:10437000B38376DC80915D0A90915E0AA0915F0A1A
:10438000B091600AE889F989EE59FD4F80839183E5
:10439000A283B38365DC8091610A9091620AA09147
:1043A000630AB091640AE889F989EA59FD4F80836C
:1043B0009183A283B38354DC8091690A90916A0A45
:1043C000A0916B0AB0916C0AE889F989E659FD4F12
:1043D00080839183A283B38343DC80916D0A9091A3
:1043E0006E0AA0916F0AB091700AE889F989E259C2
:1043F000FD4F80839183A283B38332DC8091710A65
:104400009091720AA091730AB091740AE889F989AF
:10441000EE58FD4F80839183A283B38321DC80918A
:10442000090A90910A0AA0910B0AB0910C0AE88936
:10443000F989EA58FD4F80839183A283B38310DC0E
:1044400080910D0A90910E0AA0910F0AB091100A66
:10445000E889F989E658FD4F80839183A283B3836D
:10446000FFDB8091110A9091120AA091130AB0917A
:10447000140AE889F989E258FD4F80839183A28369
:10448000B383EEDBE889F989EE57FD4F81E0209197
:10449000E1093091E2092130310509F080E08083A3
:1044A000DFDBE889F989ED57FD4F81E02091E509CF
:1044B0003091E6092130310509F080E08083D0DBBE
:1044C000E889F989EC57FD4F81E02091E9093091A5
:1044D000EA092130310509F080E08083C1DBE889F9
:1044E000F989E056FD4F81E04091B9095091BA0930
:1044F0006091BB097091BC09452B462B472B09F4F1
:1045000080E08083ADDBE889F989EF55FD4F81E0DC
:104510004091BD095091BE096091BF097091C009D9
:10452000452B462B472B09F480E0808399DBE889F3
:10453000F989EE55FD4F81E04091C1095091C209C2
:104540006091C3097091C409452B462B472B09F490
:1045500080E0808385DBE889F989ED55FD4F81E0B6
:104560004091910A5091920A6091930A7091940A35
:10457000452B462B472B09F480E0808371DBE889CB
:10458000F989EC55FD4F81E04091950A5091960ACA
:104590006091970A7091980A452B462B472B09F496
:1045A00080E080835DDBE889F989EB55FD4F81E090
:1045B0004091990A50919A0A60919B0A70919C0AC5
:1045C000452B462B472B09F480E0808349DBE889A3
:1045D000F989EA55FD4F81E02091C9093091CA0956
:1045E0002130310509F080E080833ADBE889F989E0
:1045F000E955FD4F81E02091CD093091CE09213060
:10460000310509F080E080832BDBE889F989E855E2
:10461000FD4F81E02091D1093091D209213031053F
:1046200009F080E080831CDB8091910990919209D0
:10463000A0919309B0919409E889F989E755FD4F54
:1046400080839183A283B3830BDB80919509909142
:104650009609A0919709B0919809E889F989E355DD
:10466000FD4F80839183A283B383FADA8091990905
:1046700090919A09A0919B09B0919C09E889F989C8
:10468000EF54FD4F80839183A283B383E9DAE889F5
:10469000F989EC56FD4F81E04091A1095091A209A2
:1046A0006091A3097091A409452B462B472B09F46F
:1046B00080E08083D5DAE889F989EB56FD4F81E007
:1046C0004091A5095091A6096091A7097091A80988
:1046D000452B462B472B09F480E08083C1DAE8891B
:1046E000F989EA56FD4F81E04091A9095091AA0944
:1046F0006091AB097091AC09452B462B472B09F40F
:1047000080E08083ADDA8091990B90919A0BA09113
:104710009B0BB0919C0BE889F989EB57FD4F808387
:104720009183A283B3839CDA80919D0B90919E0B21
:10473000A0919F0BB091A00BE889F989E757FD4F35
:1047400080839183A283B3838BDA8091A10B9091B4
:10475000A20BA091A30BB091A40BE889F989E357B0
:10476000FD4F80839183A283B3837ADAE889F98944
:10477000E956FD4F81E02091F9093091FA09213085
:10478000310509F080E08083E889F989E856FD4F1A
:104790001082E889F989E756FD4F108261DAE889CD
:1047A000F989E656FD4F81E02091F5093091F6092F
:1047B0002130310509F080E08083E889F989E556E8
:1047C000FD4F1082E889F989E456FD4F108248DADE
:1047D000E889F989E356FD4F81E02091190A30916B
:1047E0001A0A2130310509F080E0808339DAE8893E
:1047F000F989E256FD4F81E020911D0A30911E0A91
:104800002130310509F080E080832ADAE889F989CE
:10481000E156FD4F81E02091210A3091220A21309A
:10482000310509F080E080831BDAE889F989EF56C9
:10483000FD4F81E02091A90B3091AA0B2130310569
:1048400009F080E080830CDAE889F989EE56FD4FA3
:1048500081E02091AD0B3091AE0B2130310509F094
:1048600080E08083FDD9E889F989ED56FD4F81E02C
:104870002091B10B3091B20B2130310509F080E06D
:104880008083EED9088919890B541D4F8091410A04
:104890009091420AA091430AB091440AF8018083A2
:1048A0009183A283B383DCD9E888F988F7E4EF1A0F
:1048B000FDEFFF0A8091450A9091460AA091470AB0
:1048C000B091480AF70180839183A283B383C8D94A
:1048D0008091490A90914A0AA0914B0AB0914C0AE2
:1048E000C888D988F3E4CF1AFDEFDF0AF601808388
:1048F0009183A283B383F8014081518162817381E6
:10490000141615061606170644F041E050E060E064
:1049100070E04083518362837383F701408151814A
:1049200062817381141615061606170644F041E0DD
:1049300050E060E070E04083518362837383181617
:1049400019061A061B064CF081E090E0A0E0B0E0EA
:10495000F60180839183A283B3830E94F315FC0147
:10496000D6018D909D90AD90BC90D7014D915D91F9
:104970006D917C91D8010D911D912D913C910083F9
:1049800011832283338344835583668377838086B0
:104990009186A286B386E889F9897096FB83EA83BB
:1049A000E889F989EF56FD4F20812983E889F98943
:1049B000EB57FD4F80819181A281B381E889F9890C
:1049C000E356FD4F20812D83E889F989EA55FD4F93
:1049D00020812C83E889F989E956FD4F20812987B8
:1049E000E889F989E656FD4F20812A87E889F98907
:1049F000ED55FD4F20812E87E889F989E056FD4F5E
:104A000020812F87E889F989EE57FD4F2080E889BA
:104A1000F989ED5BFD4F3080E889F989E755FD4F55
:104A20004081518162817381E889F989EA58FD4F9B
:104A30000081118122813381E889F989E659FD4F8E
:104A4000C080D180E280F380E889F989E25AFD4F85
:104A500080809180A280B380E889F989EA5BFD4F6C
:104A60004080518062807380E889F98946A657A604
:104A700060AA71AA82AA93AAA4AAB5AAC6AAD7AA0A
:104A8000E0AEF1AE02AF13AF24AF35AFFE96408378
:104A9000518362837383E889F989EE5BFF4F30822B
:104AA000E889F989ED5BFF4F20822F85E889F98934
:104AB00023A72E8524A72C8125A740E450E060E0A1
:104AC00070E0EA5BFF4F4083518362837383E88920
:104AD000F989EC5BFF4F2A852083E889F989EB5B34
:104AE000FF4F29852083E889F989E65BFF4F2D81F7
:104AF0002083E889F989E55BFF4F80839183A28356
:104B0000B383E889F989E15BFF4F89818083A889B4
:104B1000B9895B968D919C915C978633910509F0DC
:104B200034C286E191E1FD01EC57FF4F9183808310
:104B300032961182108288E191E1369691838083CA
:104B4000329611821082E889F98981A192A14A974F
:104B5000D1F48AE291E1E857FF4F91838083E8899D
:104B6000F989E657FF4F118210828CE291E1E889C2
:104B7000F989E057FF4F91838083E889F989EE56E0
:104B8000FF4F11821082088919890C561F4FE8893E
:104B9000F989EE56FD4F20812983E889F989E75785
:104BA000FD4F80819181A281B3818D839E83AF83EC
:104BB000B887E889F989E256FD4F90819C83E8899E
:104BC000F989E955FD4FA081A987E889F989E85657
:104BD000FD4FB081BA87E889F989E556FD4F2081FC
:104BE0002E87E889F989EC55FD4F2080E889F989FD
:104BF000EF55FD4F3080E889F989ED57FD4F308141
:104C0000E889F989EC5BFD4F2081E889F989E35552
:104C1000FD4F80819181A281B381E889F989E658AD
:104C2000FD4F4081518162817381E889F989E259A0
:104C3000FD4FC080D180E280F380E889F989EE5988
:104C4000FD4F80809180A280B380E889F989E65B7E
:104C5000FD4F4080518062807380F801468E578EF0
:104C600060A271A282A293A2A4A2B5A2C6A2D7A258
:104C7000E0A6F1A642A753A764A775A786A797A7A2
:104C8000A0ABB1AB22AB33AB338E248E2985258FFD
:104C900080E490E0A0E0B0E086AB97ABA0AFB1AF0E
:104CA0002E8524AB8A8585AB9C8192AF8D819E81B8
:104CB000AF81B88583AF94AFA5AFB6AF298127AFD9
:104CC000838594858633910509F091C186E191E150
:104CD000E889F989E85FFE4F91838083E889F98943
:104CE000E65FFE4F1182108288E191E1E889F9893F
:104CF000E05FFE4F91838083E889F989EE5EFE4F85
:104D000011821082D80151968D919C914A97E1F4BD
:104D10008AE291E1E889F989E45FFE4F918380831B
:104D2000E889F989E25FFE4F118210828CE291E1FD
:104D3000E889F989EC5EFE4F91838083E889F989DF
:104D4000EA5EFE4F11821082E888F988B8EEEB1A0D
:104D5000BEEFFB0AE889F989ED56FD4F20812983D2
:104D6000E889F989E357FD4F80819181A281B38160
:104D70008D839E83AF83B887E889F989E156FD4F1B
:104D800090819C83E889F989E855FD4F3080E88956
:104D9000F989E756FD4FA081A987E889F989E4568A
:104DA000FD4F2080E889F989EB55FD4FC080E889E7
:104DB000F989EE55FD4FD080E889F989EC57FD4F10
:104DC0003081E889F989EB5BFD4F2081E889F98919
:104DD000EF54FD4F80819181A281B3818A8B9B8B9F
:104DE000AC8BBD8BE889F989E258FD4F4081518138
:104DF00062817381E889F989EE58FD4F8080918046
:104E0000A280B380E889F989EA59FD4F408051803A
:104E100062807380E889F989E25BFD4F808191812E
:104E2000A281B381F701868F978FA0A3B1A342A27D
:104E300053A264A275A286A297A2A0A6B1A642A779
:104E400053A764A775A78A899B89AC89BD8986A762
:104E500097A7A0ABB1AB22AB33ABD38EC48E358E4C
:104E600080E490E0A0E0B0E086AB97ABA0AFB1AF3C
:104E700024AA298525AB8C8182AF8D819E81AF814B
:104E8000B88583AF94AFA5AFB6AF298127AF83852F
:104E900094858633910509F0D2C086E191E1E889D5
:104EA000F989E457FE4F91838083E889F989E257B5
:104EB000FE4F1182108288E191E1E889F989EC5670
:104EC000FE4F91838083E889F989EA56FE4F11826B
:104ED0001082D70151968D919C914A97E1F48AE214
:104EE00091E1E889F989E057FE4F91838083E88951
:104EF000F989EE56FE4F118210828CE291E1E88929
:104F0000F989E856FE4F91838083E889F989E6564E
:104F1000FE4F11821082E889F989EC56FD4F80819D
:104F2000882309F4B4C08A819B810E94E511E88935
:104F3000F989EB56FD4F8081882309F4ADC0C80183
:104F40000E94E511E889F989EA56FD4F808188239E
:104F500009F4A6C0C70165960FB6F894DEBF0FBE70
:104F6000CDBFDF91CF911F910F91FF90EF90DF9018
:104F7000CF90BF90AF909F908F907F906F905F90F9
:104F80004F903F902F900C94E5118C339105D9F4FC
:104F90008AE191E1E889F989EC57FF4F9183808399
:104FA000E889F989EA57FF4F118210828CE191E17B
:104FB000E889F989E457FF4F91838083E889F9896B
:104FC000E257FF4FBECD8E9709F0BDCD8EE191E146
:104FD000E889F989EC57FF4F91838083E889F98943
:104FE000EA57FF4F1182108284E291E1E1CF8C33C6
:104FF000910589F48AE191E1E889F989E85FFE4F3A
:1050000091838083E889F989E65FFE4F11821082DF
:105010008CE191E16BCE8E9709F074CE8EE191E137
:10502000E889F989E85FFE4F91838083E889F989EF
:10503000E65FFE4F1182108284E291E157CE8C33FD
:10504000910589F48AE191E1E889F989E457FE4FF5
:1050500091838083E889F989E257FE4F118210829B
:105060008CE191E12ACF8E9709F033CF8EE191E167
:10507000E889F989E457FE4F91838083E889F989AB
:10508000E257FE4F1182108284E291E116CF8A81AD
:105090009B810E94A7114BCFC8010E94A71152CF3C
:1050A000C70165960FB6F894DEBF0FBECDBFDF9186
:1050B000CF911F910F91FF90EF90DF90CF90BF9015
:1050C000AF909F908F907F906F905F904F903F90A8
:1050D0002F900C94A711AF92BF92CF92DF92EF92D4
:1050E000FF920F931F93CF93DF93EC018AE190E03F
:1050F0009C8F8B8F8BE190E09E8F8D8F89E190E06C
:1051000098A38F8F8FE090E09AA389A38EE190E01F
:105110009CA38BA38EE090E09EA38DA385E490E0FA
:1051200098A78FA384E490E09AA789A7FE01EC5684
:10513000FF4F80E290E09487838781E290E096873A
:1051400085878FE190E0908B8787128A118A148A75
:10515000138A168A158A83E490E0908F878B82E405
:1051600090E0928F818FEC57FF4F83E290E094871D
:10517000838784E290E09687858782E290E0908B37
:105180008787128A118A148A138A168A158A81E4FB
:1051900090E0908F878B80E490E0928F818FEB5D21
:1051A000FE4F118210823296118210823296118245
:1051B0001082CE0142D8CE010E94411FCE018456FA
:1051C0009E4F41E050E0FC0157A746A7DE01A453E3
:1051D000BE4F24E030E09F963C932E939E975E0155
:1051E000F4E0AF1AFEEFBF0A28E030E0F50137A780
:1051F00026A720E130E0FC013183208321E130E06B
:10520000358324832FEF3FEF338322833783268335
:10521000628560876385618767E170E011967C93A2
:105220006E9368E170E015967C936E9314971396D5
:105230003C932E93129717963C932E9316971A969B
:105240006C911A9718966C9318971B966C911B97F4
:1052500019966C9319976DE170E0F5017183608385
:105260006CE170E075836483338322833783268304
:105270006285608763856187BE01685E7C4FFB0144
:10528000608171818E010A5F1C4FF801C080D1805E
:10529000E280F38006501109F80100811181FC01C0
:1052A000158F048FC48AD58AE68AF78A6130710522
:1052B00009F04EC0378F268FCE01865E9C4FFC01D1
:1052C000808191819E01265F3C4FF901408151818F
:1052D0006281738128503109F901208131815D9605
:1052E0003C932E935C9754964D935D936D937C9372
:1052F0005797019781F58FEF9FEF5F969C938E9361
:105300005E97DE01A45EBC4F8D919C9111971E9714
:105310004D915D916D917C91CC5FDC4F28813981FD
:10532000F501358F248F448B558B668B778B0197D6
:10533000A9F48FEF9FEF978F868FDF91CF911F9109
:105340000F91FF90EF90DF90CF90BF90AF900895B6
:10535000578F468FB1CF81E090E0CFCF81E090E0D2
:10536000EACF2F923F924F925F926F927F928F92ED
:105370009F92AF92BF92CF92DF92EF92FF920F93E4
:105380001F93CF93DF9300D01F92CDB7DEB79C83DE
:105390008B830E94301E6090A90A7090AA0A0E9416
:1053A000301E8090B90A9090BA0A0E94301E209058
:1053B000D10A3090D20A0E94301EC090AD0AD0901F
:1053C000AE0A0E94301EA090BD0AB090BE0A0E9494
:1053D000301E4090D50A5090D60A0E94301E00918F
:1053E000B10A1091B20A0E94301EE090C10AF090FA
:1053F000C20A0E94301E8091D90A89838091DA0AFC
:105400008A8391011216130614F021E030E0A40102
:10541000B3018B819C8140960E94CC13920114149D
:10542000150414F021E030E0A501B6018B819C81C8
:105430008C569F4F0E94CC1329813A811216130675
:1054400014F021E030E0A701B8018B819C81885ED7
:105450009E4F0F900F900F900F90DF91CF911F9163
:105460000F91FF90EF90DF90CF90BF90AF909F9003
:105470008F907F906F905F904F903F902F900C9403
:10548000CC138F929F92AF92BF92CF92DF92EF9206
:10549000FF92CF93DF937B010E94301EEC01F70156
:1054A00082A093A0A4A0B5A0C68CD78CE0A0F1A048
:1054B0008A819B818F30F7E29F070CF043C00196F1
:1054C0009B838A838C819D818F3027E29207ECF544
:1054D00096012B7F215531092330310530F096019B
:1054E0002B5531092330310518F401969D838C83A7
:1054F000C6010E940607882359F1F601EE0FFF1F2F
:10550000EE0FFF1FEB59F64F80829182A282B38289
:10551000B501A401C6010E94631DB601CE010E941F
:105520006D1A0E941E1F0E94EE1E90E080E0DF9127
:10553000CF91FF90EF90DF90CF90BF90AF909F9072
:105540008F9008951B821A82BDCF1D821C82D0CFFE
:105550008AED93E00E940017E4CFCF93DF93EB0135
:105560000E94301E6E8D7F8D0E946D1A90E080E04B
:10557000DF91CF9108950E94301E0E94A71A8EE3FA
:1055800094E00E9400170E94F3150E948E1990E08B
:1055900080E008950F931F93CF93DF93EC018881F0
:1055A0009981009759F02A813B812617370730F0FF
:1055B00081E0DF91CF911F910F9108958B016F5F73
:1055C0007F4F0E947D5F009759F0998388831B83EA
:1055D0000A832C813D81232B59F7FC011082E8CFEF
:1055E00080E0E7CF0F931F93CF93DF93EC018B0104
:1055F000D1DF28813981811112C02115310519F0BF
:10560000C9010E94C157198218821D821C821B8207
:105610001A82CE01DF91CF911F910F9108951D83C2
:105620000C836FE078E0C9010E946F60F2CF70E0F8
:1056300060E0D8CF2F923F924F925F926F927F920D
:105640008F929F92AF92BF92CF92DF92EF92FF9292
:105650000F931F93CF93DF93CDB7DEB7C458D10913
:105660000FB6F894DEBF0FBECDBF8C01FC011082D7
:10567000118212821382148215821682178210867A
:1056800011861286138614861586168617864C0197
:10569000F0E18F0E911CC4010E944214580184E96C
:1056A000A80EB11CC5010E9442146801E8EECE1A92
:1056B000EEEFDE0AC6010E9442147801F4E6EF1A0A
:1056C000FEEFFF0AC7010E94A40D380184E3681AA7
:1056D0008EEF780AC3010E94A40D2801E4E04E1A5F
:1056E000EEEF5E0AC2010E94A40DF801E45DFD4FD9
:1056F000118210821382128215821482CF0197DFE9
:10570000F801EE5CFD4F11821082329611821082F8
:105710003296118210823296118210823296108255
:105720003196108231961082319611821082329613
:105730001182108232961182108232961082319636
:105740001082319610823196108211821282138259
:105750003496108211821282138234961082118242
:10576000128213823496108211821282138234962E
:105770001082118212821382349610821182128258
:105780001382349610821182128213823496108210
:105790001182128213823496108211821282138235
:1057A00034961082118212821382349610821182F2
:1057B00012821382349610821182128213823496DE
:1057C0001082118212821382349610821182128208
:1057D00013823496108211821282138234961082C0
:1057E0003196108231961082319610821182128287
:1057F00013823496108211821282138234961082A0
:105800001182128213823496108231961082319660
:105810001082319610823196108231961082319624
:105820001082319610823196108231961082319614
:105830001082319610823196108231961082319604
:1058400010823196108231961082319610823196F4
:1058500010823196108231961082319610823196E4
:105860001082319610823196108211821282138238
:105870003496108211821282138234961082118221
:1058800012821382D801AB54BD4F8CE0E9E1F2E003
:1058900001900D928A95E1F7F801EF53FD4F1082C8
:1058A0001182128213823496108211821282138224
:1058B00034961082118212821382349611821082E1
:1058C00032961182108232961182108232961082A4
:1058D00011821282138234961082118212821382F4
:1058E00034961082118212821382349610821182B1
:1058F000128213823496108211821282138234969D
:105900001082118212821382349611821082329692
:105910001182108232961182108232961082118288
:10592000128213823496108211821282138234966C
:105930001082118212821382349610823196108264
:105940003196108231961182108232961182108225
:105950003296118210823296108211821282138244
:105960003496108211821282138234961082118230
:105970001282138234961182108232961182108222
:1059800032961182108232961182108232961182E2
:1059900010823296118210823296118210823296D3
:1059A000118210821801FEED2F1AFCEF3F0AF1015F
:1059B0001082319611821082329611821082CE01AD
:1059C00001960E94421484E8FE013196D4010190B0
:1059D0000D928A95E1F7CE0101960E94421484E867
:1059E000FE013196D50101900D928A95E1F7CE0125
:1059F00001960E94421484E8FE013196D60101907E
:105A00000D928A95E1F788E5F801848BE856FF4FFF
:105A100089E58083EC57FF4F8AE58083CE010196AC
:105A20000E94A40D80E3FE013196D70101900D92F2
:105A30008A95E1F7CE0101960E94A40D80E3FE0154
:105A40003196D30101900D928A95E1F7CE0101962E
:105A50000E94A40D80E3FE013196D20101900D92C7
:105A60008A95E1F7C80137DBF1011082CC57DF4F8F
:105A70000FB6F894DEBF0FBECDBFDF91CF911F915F
:105A80000F91FF90EF90DF90CF90BF90AF909F90DD
:105A90008F907F906F905F904F903F902F900895E0
:105AA000CF93DF938091430890914408892B51F460
:105AB00087E293E00E942557EC01BCDDD0934408B7
:105AC000C09343088091430890914408DF91CF919F
:105AD0000895CF93DF9380914208811114C081E033
